:020000000000FE
:020001000001FC
:020002000204F6
:0200030003F800
:020004000102F7
:0200050002AF48
:0200060001FCFB
:0200070002DE17
:02000800008175
:02000900024DA6
:02000A0003539E
:02000B0000B83B
:02000C0000FEF4
:02000D0000E809
:02000E00016F80
:02000F0002628B
:020010000244A8
:0200110001DE0E
:020012000322C7
:0200130000D615
:0200140003AD3A
:0200150000F2F7
:02001600005C8C
:0200170000588F
:02001800007F67
:0200190003D111
:02001A00007470
:02001B00023CA5
:02001C0002B32D
:02001D00006879
:02001E000131AE
:02001F00018F4F
:020020000122BB
:02002100008558
:0200220000EFED
:0200230002FDDC
:02002400019148
:0200250002785F
:02002600006B6D
:0200270003DFF5
:0200280003D201
:0200290001A72D
:02002A0000795B
:02002B00014F83
:02002C00002EA4
:02002D000213BC
:02002E00002CA4
:02002F000212BB
:02003000023B91
:02003100018B41
:0200320003ECDD
:02003300034D7B
:02003400003A90
:0200350003B511
:02003600011EA9
:0200370000E7E0
:02003800035D66
:0200390003CFF3
:02003A00003490
:02003B0003B40C
:02003C00029C24
:02003D0003E9D5
:02003E0002C3FB
:02003F0003A913
:0200400000912D
:02004100016755
:02004200024674
:02004300008734
:02004400027345
:0200450001D9DF
:02004600037A3B
:0200470002A015
:0200480002CCE8
:0200490002E2D1
:02004A00013C77
:02004B0001456D
:02004C0002317F
:02004D00016C44
:02004E0003EBC2
:02004F00012886
:0200500001E9C4
:0200510000FDB0
:0200520002D7D3
:02005300037E2A
:02005400023870
:02005500013B6D
:0200560002A303
:02005700023372
:0200580000178F
:02005900005D48
:02005A00030D94
:02005B0001346E
:02005C0000168C
:02005D00005948
:02005E00010996
:02005F00029409
:02006000031982
:02006100027526
:0200620002C1D9
:02006300038414
:0200640001F6A3
:0200650001ABED
:0200660003A2F3
:02006700013660
:02006800001D79
:0200690002B2E1
:02006A0003DEB3
:02006B0000266D
:02006C00008F03
:02006D0001513F
:02006E00027717
:02006F00022F5E
:0200700003AAE1
:02007100020982
:0200720003E3A6
:02007300023E4B
:02007400001A70
:02007500023D4A
:0200760001DAAD
:0200770001F195
:02007800014E37
:02007900002A5B
:02007A0003F091
:02007B00009DE6
:02007C0003651A
:02007D0000C5BC
:02007E0003D0AD
:02007F00001867
:02008000024C30
:02008100000875
:0200820002B7C3
:0200830002EB8E
:02008400012356
:02008500002158
:0200860002472F
:02008700004334
:02008800033D36
:02008900032A48
:02008A0002E88A
:02008B0003E18F
:02008C0001BDB4
:02008D00038CE2
:02008E0001501F
:02008F00006C03
:02009000016607
:0200910000402D
:020092000171FA
:02009300020069
:02009400009ECC
:0200950001EA7E
:0200960002A6C0
:02009700033331
:02009800031C47
:0200990000AFB6
:02009A0000B6AE
:02009B0000CE95
:02009C0003F16E
:02009D00007BE6
:02009E000094CC
:02009F0001EB73
:0200A00002F06C
:0200A100013F1D
:0200A200027AE0
:0200A30001D387
:0200A400036FE8
:0200A500017CDC
:0200A60001BF98
:0200A70000F067
:0200A800011C39
:0200A90003153D
:0200AA000299B9
:0200AB000368E8
:0200AC000355FA
:0200AD0002FE51
:0200AE00031D30
:0200AF000099B6
:0200B000020F3D
:0200B10001E567
:0200B200022A20
:0200B30001202A
:0200B4000382C5
:0200B50002C681
:0200B600009AAE
:0200B70000CF78
:0200B800000B3B
:0200B9000352F0
:0200BA0002281A
:0200BB000269D8
:0200BC000280C0
:0200BD0003E559
:0200BE00014AF5
:0200BF0003B884
:0200C0000388B3
:0200C1000392A8
:0200C200033EFB
:0200C30000DD5E
:0200C4000364D3
:0200C500007DBC
:0200C60001C275
:0200C7000260D5
:0200C80000FB3B
:0200C9000267CC
:0200CA0002D161
:0200CB0002E54C
:0200CC0001D160
:0200CD0002032C
:0200CE00009B95
:0200CF0000B778
:0200D000020A22
:0200D100031F0B
:0200D2000159D2
:0200D30003AF79
:0200D40001EF3A
:0200D50003EE38
:0200D600001315
:0200D700032301
:0200D8000243E1
:0200D900031012
:0200DA0002AC76
:0200DB000259C8
:0200DC00033FE0
:0200DD0000C35E
:0200DE0003130A
:0200DF0001E23C
:0200E00001D548
:0200E100018C90
:0200E200030019
:0200E3000234E5
:0200E40003F522
:0200E500011701
:0200E600011FF8
:0200E7000037E0
:0200E800000D09
:0200E90000FF16
:0200EA00031AF7
:0200EB0003CC44
:0200EC0000ED25
:0200ED0000EC25
:0200EE0002FC12
:0200EF000022ED
:0200F00000A767
:0200F10001BE4E
:0200F2000015F7
:0200F30003AC5C
:0200F40001F811
:0200F500012ADE
:0200F600024ABC
:0200F70003D72D
:0200F80003B64D
:0200F9000216ED
:0200FA0002669C
:0200FB0000C83B
:0200FC0001E819
:0200FD000051B0
:0200FE00000CF4
:0200FF0000E916
:020100000126D6
:0201010003A059
:020102000004F7
:0201030002AE4A
:02010400035F97
:0201050001A057
:02010600037183
:0201070003C82B
:0201080002955E
:02010900005E96
:02010A000214DD
:02010B0001F2FF
:02010C000327C7
:02010D0003BF2E
:02010E000225C8
:02010F0002CF1D
:02011000039A50
:0201110001B932
:02011200019555
:02011300036D7A
:02011400017474
:02011500016483
:0201160003F4F0
:0201170000E501
:0201180002DA09
:02011900014D96
:02011A0001C61C
:02011B0002A53B
:02011C0000A839
:02011D000314C9
:02011E000036A9
:02011F0000E6F8
:0201200000B32A
:02012100022BAF
:020122000020BB
:02012300008456
:0201240002BC1B
:0201250001ECEB
:020126000100D6
:0201270003A132
:02012800004F86
:0201290003EAE7
:02012A0000F5DE
:02012B0001F9D8
:02012C0001537D
:02012D00038F3E
:02012E00039D2F
:02012F00030AC1
:02013000018E3E
:02013100001EAE
:02013200025376
:0201330001F4D5
:02013400005B6E
:02013500030CB9
:02013600006760
:0201370003A320
:0201380003FCC6
:0201390003B011
:02013A00023988
:02013B0000556D
:02013C00004A77
:02013D0001447B
:02013E0002F1CC
:02013F0000A11D
:02014000017844
:0201410002E7D3
:02014200029B1E
:0201430002892F
:02014400013D7B
:02014500004B6D
:0201460002EDC8
:0201470001991C
:0201480003B3FF
:0201490002278B
:02014A0000BEF5
:02014B0003B9F6
:02014C0002DBD4
:02014D00011996
:02014E00007837
:02014F00002B83
:02015000008E1F
:02015100006D3F
:02015200038E1A
:02015300012C7D
:0201540003485E
:02015500028521
:0201560001B4F2
:0201570002069E
:0201580003AEF4
:0201590000D2D2
:02015A00017F23
:02015B0001DDC4
:02015C00038A14
:02015D0001A3FC
:02015E00024855
:02015F00019D00
:02016000030397
:02016100035940
:0201620002F6A3
:02016300016A2F
:02016400011583
:02016500017522
:02016600009007
:02016700004155
:0201680001C1D3
:0201690002EFA3
:02016A0001632F
:02016B0002F799
:02016C00004D44
:02016D0002305E
:02016E0002632A
:02016F00000E80
:0201700002018A
:020171000092FA
:0201720001A9E1
:0201730002F296
:02017400011474
:02017500016522
:02017600033054
:02017700038003
:02017800014044
:0201790002E69C
:02017A0003F68A
:02017B0002C4BC
:02017C0000A5DC
:02017D00036E0F
:02017E0001DCA2
:02017F00015A23
:0201800001C4B8
:0201810002B9C1
:0201820001C9B1
:0201830003FF78
:02018400019FD9
:02018500025E18
:02018600026A0B
:0201870003C5AE
:0201880001B2C2
:0201890003C6AB
:02018A00023A37
:02018B00003141
:02018C0000E190
:02018D0001D49B
:02018E0001303E
:02018F00001F4F
:020190000279F2
:02019100002448
:02019200033731
:020193000375F2
:02019400036CFA
:02019500011255
:020196000376EE
:020197000283E1
:0201980002EC77
:0201990001471C
:02019A0003055B
:02019B0002E17F
:02019C00024916
:02019D00015F00
:02019E00025FFE
:02019F000184D9
:0201A000010557
:0201A100035EFB
:0201A200038BCD
:0201A300015DFC
:0201A40002A8AF
:0201A50003BB9A
:0201A60003D381
:0201A70000292D
:0201A80002F360
:0201A9000172E1
:0201AA0001F75B
:0201AB000065ED
:0201AC00020D42
:0201AD0003BD90
:0201AE000395B7
:0201AF00034209
:0201B000032525
:0201B100039EAB
:0201B2000188C2
:0201B30003C780
:0201B4000156F2
:0201B50002073F
:0201B60003281C
:0201B70002FA4A
:0201B800039BA7
:0201B900011132
:0201BA000265DC
:0201BB00032C13
:0201BC00038DB1
:0201BD00008CB4
:0201BE0000F14E
:0201BF0000A698
:0201C00002EE4D
:0201C1000168D3
:0201C20000C675
:0201C3000261D7
:0201C4000180B8
:0201C50002B87E
:0201C600011A1C
:0201C70002A490
:0201C80003FE34
:0201C9000182B1
:0201CA00028FA2
:0201CB0002C967
:0201CC00028BA4
:0201CD0002200E
:0201CE00021F0E
:0201CF000362C9
:0201D000020229
:0201D10000CC60
:0201D200027BAE
:0201D30000A387
:0201D400018D9B
:0201D50000E048
:0201D60001E640
:0201D70002B074
:0201D8000272B1
:0201D9000045DF
:0201DA000076AD
:0201DB0001F031
:0201DC00017EA2
:0201DD00015BC4
:0201DE0000110E
:0201DF000245D7
:0201E0000257C4
:0201E10002F921
:0201E20000DF3C
:0201E300031205
:0201E400020E09
:0201E50000B167
:0201E60001D640
:0201E70002B163
:0201E80000FC19
:0201E9000050C4
:0201EA0000957E
:0201EB00009F73
:0201EC000125EB
:0201ED0002BD51
:0201EE0003EF1D
:0201EF0000D43A
:0201F00001DB31
:0201F100007795
:0201F200010BFF
:0201F3000215F3
:0201F4000133D5
:0201F5000252B4
:0201F6000064A3
:0201F70001AA5B
:0201F80000F411
:0201F900012BD8
:0201FA00022CD5
:0201FB0002F40C
:0201FC000006FB
:0201FD0002DF1F
:0201FE0002708D
:0201FF0003906B
:02020000009369
:0202010001708A
:0202020001D029
:0202030000CD2C
:020204000002F6
:0202050003F9FB
:0202060001579E
:0202070001B53F
:0202080003AB46
:02020900007182
:02020A0000D022
:02020B00031ED0
:02020C0003BC31
:02020D0001AC42
:02020E0001E409
:02020F0000B03D
:02021000034E9B
:02021100029E4B
:02021200002FBB
:02021300002DBC
:02021400010ADD
:0202150001F3F3
:0202160000F9ED
:0202170003B72B
:0202180003974A
:0202190003617F
:02021A0003DB04
:02021B00035B83
:02021C000316C7
:02021D0002934A
:02021E00036378
:02021F0001CE0E
:0202200001CD0E
:02022100028A4F
:0202220002D800
:02022300025087
:0202240002CE08
:02022500010EC8
:0202260003B221
:0202270001498B
:0202280000BA1A
:02022900026869
:02022A0000B220
:02022B000121AF
:02022C0001FAD5
:02022D0002F5D8
:02022E00027656
:02022F00006F5E
:02023000016D5E
:02023100004C7F
:0202320002A226
:02023300005772
:0202340000E3E5
:020235000301C3
:0202360003566D
:02023700026C57
:02023800005470
:02023900013A88
:02023A00018A37
:02023B00003091
:02023C00001BA5
:02023D0000754A
:02023E0000734B
:02023F0003E2D8
:02024000025D5D
:0202410003CBED
:020242000311A6
:0202430000D8E1
:020244000010A8
:0202450001DFD7
:02024600004274
:0202470000862F
:02024800015E55
:02024900019C16
:02024A0000F6BC
:02024B0003D6D8
:02024C00008030
:02024D000009A6
:02024E0003D4D7
:02024F00026F3C
:02025000022387
:0202510002D9D0
:0202520001F5B4
:02025300013276
:02025400027E28
:0202550003A6FE
:0202560002F8AC
:0202570001E0C4
:0202580002ADF5
:0202590000DBC8
:02025A0003C3DC
:02025B00037925
:02025C0003CAD3
:02025D0002405D
:02025E00018518
:02025F00019EFE
:0202600000C7D5
:0202610001C3D7
:02026200000F8B
:02026300016E2A
:02026400032D68
:0202650001BADC
:0202660000FA9C
:0202670000C9CC
:02026800022969
:0202690000BBD8
:02026A0001860B
:02026B0003C4CA
:02026C00023757
:02026D00035735
:02026E0003D5B6
:02026F00024F3C
:0202700001FE8D
:020271000391F7
:0202720001D8B1
:02027300004445
:0202740003186D
:02027500006126
:02027600022E56
:02027700006E17
:0202780000255F
:020279000190F2
:02027A0000A2E0
:02027B0001D2AE
:02027C00037C01
:02027D0003512B
:02027E00025428
:02027F0003A7D3
:0202800000BCC0
:0202810003E494
:02028200037700
:020283000197E1
:0202840003492C
:02028500015521
:02028600034033
:020287000399D9
:02028800029AD8
:0202890001432F
:02028A0002214F
:02028B0001CCA4
:02028C000372FB
:02028D0002D39A
:02028E0002C8A4
:02028F0001CAA2
:0202900003DD8C
:0202910003F276
:02029200031750
:02029300021D4A
:02029400005F09
:0202950001085E
:0202960003D88B
:02029700034B17
:020298000369F8
:0202990000AAB9
:02029A000288D8
:02029B0001421E
:02029C00003C24
:02029D0003E874
:02029E0002114B
:02029F00034F0B
:0202A000004715
:0202A100037BDD
:0202A200023226
:0202A300005603
:0202A40001C790
:0202A500011B3B
:0202A6000096C0
:0202A700033220
:0202A80001A4AF
:0202A90003BA96
:0202AA00034609
:0202AB00033A14
:0202AC0000DA76
:0202AD000258F5
:0202AE0001034A
:0202AF00000548
:0202B00001D774
:0202B10001E763
:0202B2000069E1
:0202B300001C2D
:0202B40002BB8B
:0202B50002D471
:0202B60002EA5A
:0202B7000082C3
:0202B80001C57E
:0202B9000181C1
:0202BA0002D56B
:0202BB0002B48B
:0202BC0001241B
:0202BD0001ED51
:0202BE0002CA72
:0202BF00030931
:0202C0000385B4
:0202C1000062D9
:0202C20003A88F
:0202C300003EFB
:0202C400017BBC
:0202C50003F73D
:0202C60000B581
:0202C7000383AF
:0202C800028EA4
:0202C90001CB67
:0202CA0002BE72
:0202CB00030826
:0202CC000048E8
:0202CD0002E34A
:0202CE00022408
:0202CF00010F1D
:0202D00002E446
:0202D10000CA61
:0202D2000373B4
:0202D300028D9A
:0202D40002B571
:0202D50002BA6B
:0202D600037FA4
:0202D7000052D3
:0202D800022200
:0202D9000251D0
:0202DA00011809
:0202DB00014CD4
:0202DC000335E8
:0202DD00038795
:0202DE00000717
:0202DF0001FD1F
:0202E000030415
:0202E100019B7F
:0202E2000049D1
:0202E30002CD4A
:0202E40002D046
:0202E50000CB4C
:0202E60001799C
:0202E7000141D3
:0202E800008A8A
:0202E90003E030
:0202EA0002B65A
:0202EB0000838E
:0202EC00019877
:0202ED000146C8
:0202EE0001C04D
:0202EF000169A3
:0202F00000A06C
:0202F100013ECC
:0202F200017396
:0202F30001A860
:0202F40001FB0C
:0202F500022DD8
:0202F6000162A3
:0202F700016B99
:0202F8000256AC
:0202F90001E121
:0202FA0001B74A
:0202FB000329D5
:0202FC0000EE12
:0202FD000023DC
:0202FE0000AD51
:0202FF000354A6
:0203000000E219
:020301000235C3
:0203020003589E
:02030300016097
:0203040002E015
:02030500019A5B
:0203060003FBF7
:02030700036A87
:0203080002CB26
:0203090002BF31
:02030A00012FC1
:02030B00039C51
:02030C000135B9
:02030D00005A94
:02030E0003E604
:02030F00036782
:0203100000D912
:020311000242A6
:0203120001E305
:0203130000DE0A
:02031400011DC9
:0203150000A93D
:02031600021CC7
:02031700029250
:0203180002746D
:02031900006082
:02031A0000EAF7
:02031B0003CD10
:02031C00009847
:02031D0000AE30
:02031E00020BD0
:02031F0000D10B
:020320000338A0
:0203210003A532
:020322000012C7
:0203230000D701
:02032400039F35
:0203250001B025
:0203260003BE14
:02032700010CC7
:0203280001B61C
:0203290002FBD5
:02032A00008948
:02032B00033C91
:02032C0001BB13
:02032D00026468
:02032E00034585
:02032F0003C009
:02033000017654
:02033100038146
:0203320002A720
:02033300009731
:0203340003863E
:0203350002DCE8
:0203360003744E
:02033700019231
:020338000320A0
:0203390003A41B
:02033A0002AB14
:02033B00034776
:02033C00032B91
:02033D00008836
:02033E0000C2FB
:02033F0000DCE0
:02034000028633
:0203410003981F
:0203420001AF09
:02034300039421
:0203440003C1F3
:02034500032E85
:0203460002AA09
:02034700033B76
:0203480001545E
:0203490002842C
:02034A0003D9D5
:02034B00029717
:02034C0003EDBF
:02034D0000337B
:02034E0002109B
:02034F00029F0B
:02035000037D2B
:02035100027D2B
:0203520000B9F0
:02035300000A9E
:0203540002FFA6
:0203550000ACFA
:0203560002366D
:02035700026D35
:0203580003029E
:02035900016140
:02035A0003DAC4
:02035B00021B83
:02035C0003CECE
:02035D00003866
:02035E0001A1FB
:02035F00010497
:02036000039602
:0203610002197F
:0203620001CFC9
:02036300021E78
:0203640000C4D3
:02036500007C1A
:0203660003E7AB
:02036700030F82
:0203680000ABE8
:020369000298F8
:02036A00030787
:02036B0003FA93
:02036C000194FA
:02036D0001137A
:02036E00017D0F
:02036F0000A4E8
:0203700003C9BF
:02037100010683
:02037200028CFB
:0203730002D2B4
:0203740003364E
:020375000193F2
:020376000196EE
:02037700028200
:0203780003C2BE
:02037900025B25
:02037A0000463B
:02037B0002A1DD
:02037C00027C01
:02037D0003502B
:02037E0000532A
:02037F0002D6A4
:02038000017703
:02038100033146
:0203820000B4C5
:0203830002C7AF
:02038400006314
:0203850002C0B4
:0203860003343E
:0203870002DD95
:0203880000C0B3
:020389000393DC
:02038A00015C14
:02038B0001A2CD
:02038C00008DE2
:02038D0001BCB1
:02038E0001521A
:02038F00012D3E
:0203900001FF6B
:020391000271F7
:0203920000C1A8
:020393000389DC
:02039400034321
:0203950001AEB7
:02039600036002
:0203970002184A
:0203980003411F
:020399000287D9
:02039A00011050
:02039B0001B8A7
:02039C00030B51
:02039D00012E2F
:02039E0001B1AB
:02039F00032435
:0203A000010159
:0203A100012732
:0203A2000066F3
:0203A300013720
:0203A40003391B
:0203A500032132
:0203A6000255FE
:0203A700027FD3
:0203A80002C28F
:0203A900003F13
:0203AA000070E1
:0203AB00020846
:0203AC0000F35C
:0203AD0000143A
:0203AE000158F4
:0203AF0000D379
:0203B000013911
:0203B10003FD4A
:0203B200022621
:0203B3000148FF
:0203B400003B0C
:0203B500003511
:0203B60000F84D
:0203B70002172B
:0203B80000BF84
:0203B900014BF6
:0203BA0002A996
:0203BB0001A59A
:0203BC00020C31
:0203BD0001AD90
:0203BE00032614
:0203BF00010D2E
:0203C000032F09
:0203C1000344F3
:0203C2000378BE
:0203C300025ADC
:0203C400026BCA
:0203C5000187AE
:0203C6000189AB
:0203C70001B380
:0203C80001072B
:0203C9000370BF
:0203CA00025CD3
:0203CB000241ED
:0203CC0000EB44
:0203CD00031B10
:0203CE00035CCE
:0203CF000039F3
:0203D000007EAD
:0203D100001911
:0203D200002801
:0203D30001A681
:0203D400024ED7
:0203D500026EB6
:0203D600024BD8
:0203D70000F72D
:0203D80002968B
:0203D900034AD5
:0203DA00035AC4
:0203DB00021A04
:0203DC0003F329
:0203DD0002908C
:0203DE00006AB3
:0203DF000027F5
:0203E00002E930
:0203E100008B8F
:0203E200023FD8
:0203E3000072A6
:0203E400028194
:0203E50000BD59
:0203E600030E04
:0203E7000366AB
:0203E800029D74
:0203E900003DD5
:0203EA000129E7
:0203EB00004EC2
:0203EC000032DD
:0203ED00034CBF
:0203EE0000D538
:0203EF0001EE1D
:0203F000007A91
:0203F100009C6E
:0203F200029176
:0203F30003DC29
:0203F4000116F0
:0203F50000E422
:0203F600017A8A
:0203F70002C53D
:0203F800000300
:0203F9000205FB
:0203FA00036B93
:0203FB000306F7
:0203FC000138C6
:0203FD0003B14A
:0203FE0001C834
:0203FF00018378
:00000001FF