:020000020000FC
:040000003EC0006F8F
:0400010000000000FB
:0400020000000000FA
:0400030000000000F9
:0400040000000000F8
:0400050000000000F7
:0400060000000000F6
:0400070000000000F5
:04000800FC010113E3
:04000900001120239F
:04000A00005122235C
:04000B000061242349
:04000C000071262336
:04000D0000A1282303
:04000E0000B12A23F0
:04000F0000C12C23DD
:0400100000D12E23CA
:0400110002E12023C5
:0400120002F12223B2
:04001300030124239E
:04001400031126238B
:0400150003C12823D8
:0400160003D12A23C5
:0400170003E12C23B2
:0400180003F12E239F
:0400190034202573F7
:04001A00341025F386
:04001B0034302673E4
:04001C0018C000EF19
:04001D003415107313
:04001E00000120833A
:04001F0000412283F7
:040020000081230335
:0400210000C1238374
:0400220001012503B0
:0400230001412583EF
:04002400018126032D
:0400250001C126836C
:0400260002012703A9
:0400270002412783E8
:040028000281280326
:0400290002C1288365
:04002A0003012E039D
:04002B0003412E83DC
:04002C0003812F031A
:04002D0003C12F8359
:04002E0004010113B5
:04002F00302000730A
:04003000FD010113BA
:0400310002812623FF
:0400320003010413AF
:04003300FCA42E23D8
:04003400FE0426237D
:04003500FEC427835B
:040036000007851327
:0400370002C12403DB
:0400380003010113AC
:0400390000008067DC
:04003A00FF010113AE
:04003B0000812623F7
:04003C0001010413A7
:04003D00001000733C
:04003E0000000013AB
:04003F0000C12403D5
:0400400001010113A6
:0400410000008067D4
:04004200FD010113A8
:04004300021126235D
:0400440002812423EE
:04004500030104139C
:0400460000000013A3
:04004700344027F327
:04004800FEF420237F
:04004900304027F329
:04004A00FEF422237B
:04004B00FE04270385
:04004C00FE442783C4
:04004D0000F777B38E
:04004E000107D7933C
:04004F00FCF42A2370
:04005000FC042E235B
:040051000010079301
:04005200FCF42C236B
:04005300FD4427033E
:04005400FD8427837D
:0400550000F777B386
:0400560006078263B4
:04005700000097B757
:04005800D6478713ED
:04005900FDC4278338
:04005A000037979341
:04005B0000F707B3F0
:04005C000007A703EF
:04005D00000097B751
:04005E00D647869368
:04005F00FDC4278332
:04006000003797933B
:0400610000F687B36B
:040062000047A78329
:0400630000078513FA
:04006400000700E7AA
:040065000000001384
:04006600344027F308
:04006700FEF424235C
:04006800304027F30A
:04006900FEF4262358
:04006A00FE842703E6
:04006B00FEC4278325
:04006C0000F777B36F
:04006D000107D7931D
:04006E000200006F1D
:04006F00FD84278362
:04007000001797934B
:04007100FCF42C234C
:04007200FDC427831F
:040073000017879358
:04007400FCF42E2347
:04007500F79FF06F92
:04007600FCF42A2349
:04007700FD4427839A
:04007800F60790E314
:040079000000001370
:04007A00000000136F
:04007B0002C120831B
:04007C0002812403D6
:04007D000301011367
:04007E000000806797
:04007F00FD0101136B
:040080000211262320
:0400810002812423B1
:04008200030104135F
:04008300FCA42E2388
:04008400FCB42C2379
:04008500FCC42A236A
:04008600FDC427038B
:04008700800007B737
:0400880000F777B353
:04008900FEF424233A
:04008A00FDC4270387
:04008B00800007B733
:04008C00FFF7879360
:04008D0000F777B34E
:04008E00FEF4262333
:04008F00FE84278341
:040090000807886372
:04009100FEC427037F
:0400920000300793A0
:0400930004F700630B
:04009400FEC427037C
:04009500007007935D
:0400960006F71263F4
:04009700000097B717
:04009800CF87A783E4
:04009900080782636F
:04009A00000000134F
:04009B00000097B713
:04009C00CF87A783E0
:04009D00FD442603F5
:04009E00FD84258335
:04009F00FDC4250374
:0400A000000780E7EE
:0400A1000000001348
:0400A2000600006FE5
:0400A300000097B70B
:0400A400CF47A78318
:0400A50004078E635B
:0400A6000000001343
:0400A700000097B707
:0400A800CF47A78314
:0400A900FD442603E9
:0400AA00FD84258329
:0400AB00FDC4250368
:0400AC00000780E7E2
:0400AD00000000133C
:0400AE000380006F5C
:0400AF00FEC4270361
:0400B00000F00793C2
:0400B10002E7FA6305
:0400B200E41FF0EF68
:0400B30002C0006F18
:0400B400FEC425035E
:0400B500DEDFF0EFAB
:0400B60000050793A7
:0400B7000207906349
:0400B800E09FF0EFE6
:0400B9000180006F53
:0400BA00000000132F
:0400BB000100006FD1
:0400BC00000000132D
:0400BD000080006F50
:0400BE00000000132B
:0400BF00FD84278312
:0400C000000785139D
:0400C10002C12083D5
:0400C2000281240390
:0400C3000301011321
:0400C4000000806751
:0400C500FE01011324
:0400C60000112E23D4
:0400C70000812C2365
:0400C800020104131A
:0400C9000010079389
:0400CA00FEF407A396
:0400CB000300006FBF
:0400CC00000307B76F
:0400CD00FEF44703F3
:0400CE0000E7A02384
:0400CF000007A7B7C8
:0400D000120785137B
:0400D1002B4000EFD1
:0400D200FEF447836E
:0400D30000179793E8
:0400D4000FF7F79398
:0400D50000178793F6
:0400D600FEF407A38A
:0400D700000307B764
:0400D8000007A70373
:0400D9000FF007938A
:0400DA00FCF714E338
:0400DB000280006F30
:0400DC00000307B75F
:0400DD00FEF44703E3
:0400DE0000E7A02374
:0400DF000007A7B7B8
:0400E000120785136B
:0400E100274000EFC5
:0400E200FEF447835E
:0400E3000017D79398
:0400E400FEF407A37C
:0400E500000307B756
:0400E6000007A70365
:0400E700001007936B
:0400E800FCF718E326
:0400E900F800079381
:0400EA00FEF407A376
:0400EB000300006F9F
:0400EC00000307B74F
:0400ED00FEF44703D3
:0400EE0000E7A02364
:0400EF000007A7B7A8
:0400F000120785135B
:0400F100234000EFB9
:0400F200FEF447834E
:0400F3000017D79388
:0400F4000FF7F79378
:0400F500F8078793EE
:0400F600FEF407A36A
:0400F700FEF44703C9
:0400F8000FF007936B
:0400F900FCF716E317
:0400FA00F75FF06F4D
:0400FB000000029768
:0400FC00C3428293E6
:0400FD00305290737A
:0400FE0008800293E1
:0400FF003002B073A8
:040100003040107308
:040101003440107303
:0401020000008197E1
:04010300944181930F
:040104000001E117FE
:04010500BF01011322
:04010600000093174B
:040107008DC303138E
:0401080000009397C9
:04010900CB438393CE
:04010A0000032023AB
:04010B000043031397
:04010C00FE736CE32F
:04010D000C8000EF73
:04010E000000631773
:04010F009D430313F6
:0401100000006397F1
:040111009CC3839375
:04011200007378639B
:0401130000032023A2
:04011400004303138E
:04011500FE736CE326
:0401160000006297EC
:040117009B428293F2
:040118000000631769
:040119009AC303136F
:04011A0000006397E7
:04011B009A438393ED
:04011C000062FC631E
:04011D000002A483B5
:04011E000093A02387
:04011F000042829385
:040120000043839382
:04012100FE62E8E3AF
:040122000000621760
:0401230098420213E9
:040124000E0000EFDA
:040125000000006F67
:04012600FE010113C2
:0401270000812E2302
:0401280002010413B9
:04012900FEA42623E7
:04012A00FEB42423D8
:04012B00FEC42223C9
:04012C00FE84270323
:04012D00FEC4278362
:04012E0002F70A6367
:04012F000240006F1B
:04013000FEC42703DF
:0401310000470793E9
:04013200FEF426238E
:04013300FE8427839C
:040134000047869367
:04013500FED42423AD
:040136000007270394
:0401370000E7A0231A
:04013800FE84270317
:04013900FE442783D6
:04013A00FCF71CE3CF
:04013B0000000013AD
:04013C0001C12403D6
:04013D0002010113A7
:04013E0000008067D6
:04013F00FF010113A8
:040140000011262361
:0401410000812423F2
:0401420001010413A0
:04014300000077B78A
:0401440058078613BF
:04014500000067B798
:04014600E0C78593F6
:04014700000077B786
:0401480058078513BC
:04014900F75FF0EF7D
:04014A003140061327
:04014B000200059316
:04014C000200051395
:04014D00F65FF0EF7A
:04014E00000067B78F
:04014F00E0C786136C
:04015000000067B78D
:04015100DB078593B0
:04015200000067B78B
:04015300DB0785132E
:04015400F49FF0EF35
:04015500689000EFBF
:040156000B4010EF5B
:040157000000001391
:0401580000C120833F
:0401590000812403FA
:04015A00010101138B
:04015B0000008067B9
:04015C00FE0101138C
:04015D0000112E233C
:04015E0000812C23CD
:04015F000201041382
:040160000000051383
:040161000A8000EF21
:040162000000001386
:040163000D8000EF1C
:04016400000067B779
:04016500DB0786131B
:04016600000067B777
:04016700DB0785939A
:04016800000067B775
:04016900DB07851318
:04016A0032C010EFA0
:04016B007A1000EF17
:04016C00000017B7C1
:04016D005AC78513D5
:04016E00210030EF4D
:04016F00000097B73E
:04017000CFC7A7034B
:04017100000097B73C
:04017200D007A68389
:04017300000097B73A
:04017400D047A78346
:0401750000078613E6
:040176000006859367
:040177000007051365
:04017800D35FF0EF72
:04017900FEA4262397
:04017A000010051359
:04017B0027C030EF7A
:04017C00FEC4250395
:04017D001D5010EF12
:04017E00FE0101136A
:04017F0000112E231A
:0401800000812C23AB
:040181000201041360
:04018200FEA426238E
:04018300FEC425038E
:04018400545000EFE4
:0401850000050793D7
:0401860000078513D6
:0401870001C120830F
:0401880001812403CA
:04018900020101135B
:04018A00000080678A
:04018B00FE0101135D
:04018C0000112E230D
:04018D0000812C239E
:04018E000201041353
:04018F00FEA4262381
:040190005F4010EFCD
:040191000080079350
:040192003007A0731F
:040193000000001355
:040194000000001354
:0401950001C1208301
:0401960001812403BC
:04019700020101134D
:04019800000080677C
:04019900FE0101134F
:04019A0000112E23FF
:04019B0000812C2390
:04019C000201041345
:04019D000000061345
:04019E0000000593C5
:04019F00000067B73E
:0401A000E387851359
:0401A1001E0000EF4D
:0401A200000067B73B
:0401A300E1078513D8
:0401A400595000EFBF
:0401A5003E800793FE
:0401A600FEF426231A
:0401A700000097B706
:0401A800D107A78351
:0401A90000079A634E
:0401AA00000097B703
:0401AB00FEC4270364
:0401AC00D0E7A823CD
:0401AD000080006F5F
:0401AE00000000133A
:0401AF00000027B76E
:0401B000EA07879340
:0401B100FEF4242311
:0401B200000097B7FB
:0401B300FE8427039C
:0401B400CEE7AC23C3
:0401B5000000001333
:0401B600075010EFEF
:0401B7000000001331
:0401B80001C12083DE
:0401B9000181240399
:0401BA00020101132A
:0401BB000000806759
:0401BC00FD0101132D
:0401BD0002112623E2
:0401BE000281242373
:0401BF000301041321
:0401C000FCA42E234A
:0401C100FCB42C233B
:0401C200FCC42A232C
:0401C300FDC42783CD
:0401C4000007A78306
:0401C500FEF42623FB
:0401C600FEC42783C9
:0401C7000287871311
:0401C800FDC42783C8
:0401C9000087A78381
:0401CA000007869311
:0401CB00FD442603C6
:0401CC00FD84258306
:0401CD00000705130F
:0401CE0064C000EF1A
:0401CF00000507938D
:0401D000000785138C
:0401D10002C12083C4
:0401D200028124037F
:0401D3000301011310
:0401D4000000806740
:0401D500FD01011314
:0401D60002112623C9
:0401D700028124235A
:0401D8000301041308
:0401D900FCA42E2331
:0401DA00FCB42C2322
:0401DB00FCC42A2313
:0401DC00FDC42783B4
:0401DD000007A783ED
:0401DE00FEF42623E2
:0401DF00FEC42783B0
:0401E00002878713F8
:0401E100FDC42783AF
:0401E2000087A78368
:0401E30000078693F8
:0401E400FD442603AD
:0401E500FD842583ED
:0401E60000070513F6
:0401E700015000EFD4
:0401E8000005079374
:0401E9000007851373
:0401EA0002C12083AB
:0401EB000281240366
:0401EC0003010113F7
:0401ED000000806727
:0401EE00FD010113FB
:0401EF0002112623B0
:0401F0000281242341
:0401F10003010413EF
:0401F200FCA42E2318
:0401F300FDC427839D
:0401F4000007A783D6
:0401F500FEF42623CB
:0401F600FEC4278399
:0401F70002878713E1
:0401F800FDC4278398
:0401F9000087A78351
:0401FA0000078593E2
:0401FB0000070513E1
:0401FC00428000EF4E
:0401FD00000507935F
:0401FE00000785135E
:0401FF0002C1208396
:040200000281240350
:0402010003010113E1
:040202000000806711
:04020300FD010113E5
:04020400021126239A
:04020500028124232B
:0402060003010413D9
:04020700FCA42E2302
:04020800FCB42C23F3
:04020900FCC42A23E4
:04020A00FDC4278385
:04020B000007A783BE
:04020C00FEF42623B3
:04020D00FEC4278381
:04020E000287879349
:04020F00FD44260381
:04021000FD842583C1
:04021100000785134A
:0402120043C000EFF6
:040213000005079348
:040214000007851347
:0402150002C120837F
:04021600028124033A
:0402170003010113CB
:0402180000008067FB
:04021900FD010113CF
:04021A000211262384
:04021B000281242315
:04021C0003010413C3
:04021D00FCA42E23EC
:04021E00FCB42C23DD
:04021F00FCC42A23CE
:04022000FDC427836F
:0402210000100713AF
:0402220002E7A0232C
:04022300FDC427836C
:040224000207A783A3
:04022500FEF426239A
:04022600FDC4278369
:040227000007A783A2
:040228000047879371
:040229000007871330
:04022A00FEC4278364
:04022B0000F7202395
:04022C00FD84250325
:04022D00FD442583E4
:04022E0000000713B2
:04022F00FDC4268361
:04023000000017B7FC
:040231009247861357
:04023200561000EF73
:04023300FDC427835C
:040234000207A223F8
:04023500FDC427835A
:0402360000878713A3
:04023700000097B775
:04023800D107A583C2
:04023900FDC4268357
:04023A00000017B7F2
:04023B00B5C78613AA
:04023C00000705139F
:04023D000F9000EF2F
:04023E00000507931D
:04023F000007DA6377
:04024000FDC427834F
:0402410080000737FB
:04024200FFF70713A8
:0402430000E7A2230B
:0402440000000013A3
:0402450002C120834F
:04024600028124030A
:04024700030101139B
:0402480000008067CB
:04024900FA010113A2
:04024A0004812E23DA
:04024B000601041391
:04024C00FAA42623C7
:04024D00FAC4278345
:04024E00FCF4222377
:04024F00FC442783C1
:040250000007A78379
:04025100FCF4242372
:04025200FA042C235B
:04025300FC8427837D
:040254000047879345
:040255000007A78374
:04025600FCF426236B
:04025700FCC4278339
:04025800FCF4282367
:04025900FD042783F6
:04025A003007F793DF
:04025B001C078E638B
:04025C00FD042783F3
:04025D001007F793FC
:04025E000E0786639E
:04025F00000107B7DC
:04026000FAF42E235B
:04026100FC442783AF
:040262000287A783E5
:040263000017879366
:040264007FF7F79396
:04026500FCF42A2358
:04026600FC442783AA
:0402670002C7A783A0
:04026800FD44270327
:0402690006F702632F
:04026A00FC84278366
:04026B000007A7835E
:04026C00FCF42C234F
:04026D00FD84278362
:04026E00FAF42E234D
:04026F00FBC42703A2
:04027000000087B74C
:0402710000F777B368
:040272000407846396
:04027300FC4427839D
:040274000287A783D3
:04027500FBC427039C
:040276000FF77713F4
:04027700FC4426839A
:0402780000F687B352
:0402790002E78C23E9
:04027A00FC44278396
:04027B000287A783CC
:04027C00001787934D
:04027D007FF7F713FD
:04027E00FC44278392
:04027F0002E7A423CB
:040280000000001367
:04028100F81FF06F03
:040282000000001365
:040283000080006F88
:040284000000001363
:04028500FBC427038C
:04028600000107B7B5
:0402870004F76463B1
:04028800FC44278388
:040289000207A7833E
:04028A00FFE7F71380
:04028B00FC44278385
:04028C0002E7A023C2
:04028D00FC44278383
:04028E000207A78339
:04028F00FCF42E232A
:04029000FC84278340
:040291000047879308
:0402920000078713C7
:04029300FDC42783FC
:0402940000F720232C
:04029500FC8427833B
:040296000047879303
:040297000007A78332
:04029800FEF420232D
:04029900FD042783B6
:04029A002007F793AF
:04029B00EE0780E307
:04029C00FD042783B3
:04029D000107D793EB
:04029E00FCF4202329
:04029F0005C0006F27
:0402A000FC44278370
:0402A1000347A783E5
:0402A200FC442703EE
:0402A30000F707B3A6
:0402A4000000173708
:0402A50000F707B3A4
:0402A6008387C78300
:0402A700FEF422231C
:0402A800FC84278328
:0402A900FE442703E5
:0402AA0000E7A023A6
:0402AB00FC44278365
:0402AC000347A783DA
:0402AD00001787931C
:0402AE007FF7F713CC
:0402AF00FC44278361
:0402B00002E7AA2394
:0402B100001007939F
:0402B200FAF42C230B
:0402B300FC0427839D
:0402B400FFF7879336
:0402B500FCF4202312
:0402B600FC0427839A
:0402B70000078C634D
:0402B800FC44278358
:0402B9000347A7034D
:0402BA00FC44278356
:0402BB000307A7830B
:0402BC00F8F718E354
:0402BD00FC04278393
:0402BE00E4078AE3E4
:0402BF00FC44278351
:0402C0000207A78307
:0402C100FFD7F71359
:0402C200FC4427834E
:0402C30002E7A0238B
:0402C400FC4427834C
:0402C5000207A78302
:0402C600FEF42423FB
:0402C700FC44278349
:0402C8000007A78301
:0402C90000478793D0
:0402CA00000787138F
:0402CB00FE84278303
:0402CC0000F72023F4
:0402CD00FC84278303
:0402CE0000478793CB
:0402CF000007A783FA
:0402D000FEF42623EF
:0402D100E09FF06F4B
:0402D2000000001315
:0402D3000000001314
:0402D40005C1240339
:0402D500060101130A
:0402D600000080673D
:0402D700FD01011311
:0402D8000281262356
:0402D9000301041306
:0402DA00FCA42E232F
:0402DB00FDC42783B4
:0402DC00FEF42023E9
:0402DD00FE04278371
:0402DE000007A783EB
:0402DF0000478793BA
:0402E0000007A783E9
:0402E100FEF42223E2
:0402E200FE4427832C
:0402E300FEF42423DE
:0402E400FE842783EA
:0402E5004007F79344
:0402E60002078C631C
:0402E700FE04278367
:0402E8000207A783DF
:0402E9004007E79350
:0402EA00FEF42623D5
:0402EB00FE04278363
:0402EC000007A783DD
:0402ED0000478793AC
:0402EE00000787136B
:0402EF00FEC427839F
:0402F00000F72023D0
:0402F100FE0427835D
:0402F2000207A2233A
:0402F3000340006F55
:0402F400FE0427835A
:0402F5000247A70312
:0402F600800007B7C6
:0402F700FFC7879323
:0402F80002E7E063D6
:0402F900FE04278355
:0402FA000247A7838D
:0402FB00001787134E
:0402FC00FE04278352
:0402FD0002E7A2234F
:0402FE00FE04278350
:0402FF000247A78388
:04030000000097B7AB
:04030100D107A783F6
:040302000007851358
:0403030002C124030C
:0403040003010113DD
:04030500000080670D
:04030600FE010113E0
:0403070000812E2320
:0403080002010413D7
:04030900FEA4262305
:04030A00FEB42423F6
:04030B0001C0006FBE
:04030C00FE84270341
:04030D00000047B7EE
:04030E0000F777B3CA
:04030F0000078663FA
:04031000FF50079300
:040311000300006F76
:04031200FEC427837B
:040313000347A703F2
:04031400FEC4278379
:040315000307A783B0
:0403160000F70C637D
:04031700FEC4278376
:040318000247A703EE
:04031900FEC4278374
:04031A000047A7836E
:04031B00FCF762E3A6
:04031C000000079343
:04031D00000785133D
:04031E0001C12403F2
:04031F0002010113C3
:0403200000008067F2
:04032100FD010113C6
:04032200028126230B
:0403230003010413BB
:04032400FCA42E23E4
:04032500FCB42C23D5
:04032600FCC42A23C6
:04032700FE700793CA
:04032800FEF4242398
:04032900FD84270325
:04032A00000077B7A1
:04032B00A0178793FD
:04032C0000F70C6367
:04032D00FD84270321
:04032E00000077B79D
:04032F00A0278793E9
:0403300006F7026367
:040331000AC0006F8F
:04033200FDC427835C
:040333000047A703D5
:04033400800007B787
:04033500FFF78793B4
:0403360008F706635B
:04033700FD442783D7
:040338000007A78390
:04033900FEF4262385
:04033A00FEC42703D3
:04033B000010079314
:04033C0000E7DE6395
:04033D00FEC42703D0
:04033E00800007B77D
:04033F00FFF78793AA
:0403400000F7066359
:04034100FEC427834C
:0403420000C0006F88
:04034300800007B778
:04034400FFE78793B5
:04034500FDC42703C9
:0403460000F7222377
:04034700FE04242369
:040348000440006FFE
:04034900FDC4278345
:04034A000047A703BE
:04034B00800007B770
:04034C00FFF787939D
:04034D0002F70C6344
:04034E00FDC4278340
:04034F000247A703B7
:04035000FDC427833E
:040351000047A78337
:0403520000F737B3C6
:040353000FF7F79316
:040354000007871304
:04035500FD442783B9
:0403560000E7A023F9
:04035700FE04242359
:0403580000C0006F72
:04035900000000138D
:04035A000080006FB0
:04035B00000000138B
:04035C00FE84278371
:04035D0000078513FD
:04035E0002C12403B1
:04035F000301011382
:0403600000008067B2
:04036100FC01011387
:0403620002112E2333
:0403630002812C23C4
:040364000401041379
:04036500FCA42623AB
:04036600FCB424239C
:04036700FCC422238D
:04036800FCD420237E
:04036900FC84278366
:04036A00FCF4282354
:04036B001280006F8D
:04036C00FCC4278323
:04036D000287A783D9
:04036E00FCF42C234C
:04036F00FCC4278320
:0403700002C7A78396
:04037100FCF42E2347
:04037200FD842703DC
:04037300FDC427831B
:0403740000F76C63BF
:04037500FD842703D9
:04037600FDC4278318
:0403770040F707B391
:04037800FCF42A2344
:040379000180006F90
:04037A00000017B7B1
:04037B00800787135D
:04037C00FDC4278312
:04037D0040F707B38B
:04037E00FCF42A233E
:04037F00FD4427838F
:0403800006078E637B
:04038100FC4427838E
:04038200FD4427030C
:0403830000E7F66336
:04038400FC4427838B
:04038500FCF42A2337
:04038600FCC4278309
:04038700038787134E
:04038800FDC4278306
:0403890000F707B3BF
:04038A00FD44260305
:04038B00000785934F
:04038C00FD04250344
:04038D00499020EF84
:04038E00FD04270340
:04038F00FD4427837F
:0403900000F707B3B8
:04039100FCF428232D
:04039200FC442703FD
:04039300FD4427837B
:0403940040F707B374
:04039500FCF422232F
:04039600FDC4270378
:04039700FD44278377
:0403980000F707B3B0
:040399007FF7F713E0
:04039A00FCC42783F5
:04039B0002E7A623AC
:04039C00FC44278373
:04039D00F2F04EE349
:04039E000080006F6C
:04039F000000001347
:0403A000FD0427032E
:0403A100FC8427832E
:0403A20004F71C63DD
:0403A300FC0427032C
:0403A400000047B757
:0403A50000F777B333
:0403A600040798634D
:0403A700000000133F
:0403A800FCC42783E7
:0403A9000287A7839D
:0403AA00FD842703A4
:0403AB0000F71C63D8
:0403AC00FCC42783E3
:0403AD000247A70359
:0403AE00FCC42783E1
:0403AF000047A783D9
:0403B000FEF760E311
:0403B100FCC42783DE
:0403B2000287A78394
:0403B300FD8427039B
:0403B40002F70063E9
:0403B500FC4427835A
:0403B600ECF04CE338
:0403B7000180006F52
:0403B800000000132E
:0403B9000100006FD0
:0403BA00000000132C
:0403BB000080006F4F
:0403BC00000000132A
:0403BD00FD04270311
:0403BE00FC84278311
:0403BF0006F70463D6
:0403C000008007931F
:0403C1003007B7F357
:0403C200FEF42623FC
:0403C300FEC42783CA
:0403C400FEF4202300
:0403C500FCC42783CA
:0403C6000207A78300
:0403C7000017E71321
:0403C800FCC42783C7
:0403C90002E7A02384
:0403CA00FCC42783C5
:0403CB000207A783FB
:0403CC00FEF42223F6
:0403CD00FCC42783C2
:0403CE000007A783FA
:0403CF0000478793C9
:0403D0000007871388
:0403D100FE4427833C
:0403D20000F72023ED
:0403D300FE0427837A
:0403D400FEF42423EC
:0403D500FE842783F8
:0403D6000087F79312
:0403D7003007A073D8
:0403D800000000130E
:0403D900FD042703F5
:0403DA00FC842783F5
:0403DB0000F70A63BA
:0403DC00FD042703F2
:0403DD00FC842783F2
:0403DE0040F707B32A
:0403DF000200006FA9
:0403E000FC042703EF
:0403E100000047B71A
:0403E20000F777B3F6
:0403E3000007866326
:0403E400FF5007932C
:0403E5000080006F25
:0403E600FFB00793CA
:0403E7000007851373
:0403E80003C12083AA
:0403E9000381240365
:0403EA0004010113F6
:0403EB000000806727
:0403EC00FC010113FC
:0403ED0002112E23A8
:0403EE0002812C2339
:0403EF0004010413EE
:0403F000FCA4262320
:0403F100FCB4242311
:0403F200FCC4222302
:0403F300FCD42023F3
:0403F400FC042823BA
:0403F500FC842783DA
:0403F600FCF42C23C4
:0403F7000EC0006FC5
:0403F800FCC4278397
:0403F9000307A783CC
:0403FA00FCF42E23BE
:0403FB00FCC4278394
:0403FC000347A78389
:0403FD00FCF42823C1
:0403FE00FDC4270310
:0403FF00FD0427834F
:0404000000F77E6320
:04040100FD042703CC
:04040200FDC427838B
:0404030040F707B304
:04040400FFF78793E4
:04040500FCF42A23B6
:040406000340006F40
:04040700FD04278346
:0404080000078E63F8
:04040900000017B721
:04040A0080078713CD
:04040B00FDC4278382
:04040C0040F707B3FB
:04040D00FCF42A23AE
:04040E000140006F3A
:04040F007FF0071360
:04041000FDC427837D
:0404110040F707B3F6
:04041200FCF42A23A9
:04041300FD442783FA
:0404140008078263F0
:04041500FC442783F9
:04041600FD44270377
:0404170000E7F663A1
:04041800FC442783F6
:04041900FCF42A23A2
:04041A00FCC42703F4
:04041B00000017B70F
:04041C0083878793B8
:04041D0000F70733AA
:04041E00FDC427836F
:04041F0000F707B328
:04042000FD4426036E
:04042100FC842583AF
:040422000007851337
:04042300241020EF92
:04042400FC8427032A
:04042500FD442783E8
:0404260000F707B321
:04042700FCF424239A
:04042800FC44270366
:04042900FD442783E4
:04042A0040F707B3DD
:04042B00FCF4222398
:04042C00FDC42703E1
:04042D00FD442783E0
:04042E0000F707B319
:04042F007FF7F71349
:04043000FCC427835E
:0404310002E7A82313
:04043200FC442783DC
:04043300F0F04AE3B8
:040434000080006FD5
:0404350000000013B0
:0404360000800793A8
:040437003007B7F3E0
:04043800FEF4262385
:04043900FEC4278353
:04043A00FEF4202389
:04043B00FCC4278353
:04043C000207A78389
:04043D000027E7139A
:04043E00FCC4278350
:04043F0002E7A0230D
:04044000FCC427834E
:040441000207A78384
:04044200FEF422237F
:04044300FCC427834B
:040444000007A78383
:040445000047879352
:040446000007871311
:04044700FE442783C5
:0404480000F7202376
:04044900FE04278303
:04044A00FEF4242375
:04044B00FE84278381
:04044C000087F7939B
:04044D003007A07361
:04044E000000001397
:04044F00FC442783BF
:0404500004F05463FD
:04045100FC0427037D
:04045200000047B7A8
:0404530000F777B384
:0404540004079263A4
:040455000000001390
:04045600FCC4278338
:040457000347A7832D
:04045800FD04270375
:0404590000F71C6329
:04045A00FCC4278334
:04045B000247A703AA
:04045C00FCC4278332
:04045D000047A7832A
:04045E00FEF760E362
:04045F00FCC427832F
:040460000247A78325
:0404610000079C6391
:04046200FC442783AC
:04046300F2F04EE382
:040464000100006F24
:040465000000001380
:040466000080006FA3
:04046700000000137E
:04046800FC842703E6
:04046900FD84278364
:04046A0000F70A632A
:04046B00FC842703E3
:04046C00FD84278361
:04046D0040F707B39A
:04046E000200006F19
:04046F00FC0427035F
:04047000000047B78A
:0404710000F777B366
:040472000007866396
:04047300FF5007939C
:040474000080006F95
:04047500FFB007933A
:0404760000078513E3
:0404770003C120831A
:0404780003812403D5
:040479000401011366
:04047A000000806797
:04047B00FC0101136C
:04047C0002812E23A8
:04047D00040104135F
:04047E00FCA4262391
:04047F00FCB4242382
:04048000FCC4222373
:04048100FCD4202364
:04048200000007135C
:0404830000000793DB
:04048400FEE424234B
:04048500FEF4262338
:04048600000097B724
:04048700D107A7836F
:040488001207806374
:04048900FCC4278305
:04048A00100788636C
:04048B00FCC4278303
:04048C00FC44270302
:04048D0000E7A823B9
:04048E00FCC4278300
:04048F00FC0427033F
:0404900000E7AA23B4
:04049100008007934D
:040492003007B7F385
:04049300FEF422232E
:04049400FE44278378
:04049500FCF42A2326
:04049600000097B714
:04049700D187A7035F
:04049800D1C7A7839E
:04049900FEE4242336
:04049A00FEF4262323
:04049B00FC84278333
:04049C0000078813BA
:04049D0000000893C0
:04049E00FE842603AF
:04049F00FEC42683EE
:0404A00000C8073356
:0404A10000070593B8
:0404A2000105B5B3E8
:0404A30000D887B343
:0404A40000F586B326
:0404A5000006879333
:0404A6000007061332
:0404A7000007869331
:0404A8000010051328
:0404A90000000593B7
:0404AA0000A607336E
:0404AB00000708132B
:0404AC0000C8383319
:0404AD0000B687B35B
:0404AE0000F806B399
:0404AF000006879329
:0404B000FCC42683DF
:0404B10000E6A4239A
:0404B20000F6A62387
:0404B300FCC42783DB
:0404B40081818713A8
:0404B500FCE42E2312
:0404B600FEF420230D
:0404B700FE04278395
:0404B800FDC4270355
:0404B90000E7A22393
:0404BA00FDC42783D3
:0404BB000007A7038C
:0404BC00FE04278390
:0404BD0000E7A02391
:0404BE00FDC42783CF
:0404BF000007A78308
:0404C000FE0427030C
:0404C10000E7A2238B
:0404C200FDC42783CB
:0404C300FE04270309
:0404C40000E7A0238A
:0404C5000000001320
:0404C600FD44278347
:0404C700FCF42C23F2
:0404C800FD84278305
:0404C9000087F7931E
:0404CA003007A073E4
:0404CB00000000131A
:0404CC000000079392
:0404CD000100006FBB
:0404CE00FEA00793F2
:0404CF000080006F3A
:0404D000F7A00793F7
:0404D1000007851388
:0404D20003C124033B
:0404D300040101130C
:0404D400000080673D
:0404D500FD01011311
:0404D60002112623C6
:0404D7000281242357
:0404D8000301041305
:0404D900FCA42E232E
:0404DA000F1000EF10
:0404DB00FDC4270332
:0404DC00000707937B
:0404DD0000179793DA
:0404DE0000E787B3F9
:0404DF0000379793B8
:0404E00000E787B3F7
:0404E10000179793D6
:0404E200FEF42423DD
:0404E300FE042623CA
:0404E4000000001301
:0404E500105000EFC4
:0404E60000050713F3
:0404E70000058793F2
:0404E800FEC42683A5
:0404E900000786136F
:0404EA00FED666E3F1
:0404EB00FEC42683A2
:0404EC00000786136C
:0404ED0000C698634A
:0404EE00FE842683DF
:0404EF000007079368
:0404F000FCD7EAE368
:0404F100000007936D
:0404F2000007851367
:0404F30002C120839F
:0404F400028124035A
:0404F50003010113EB
:0404F600000080671B
:0404F700FF010113ED
:0404F8000081262336
:0404F90001010413E6
:0404FA0000000013EB
:0404FB0000C1240315
:0404FC0001010113E6
:0404FD000000806714
:0404FE00FE010113E7
:0404FF0000812E2327
:0405000002010413DD
:04050100FEA426230B
:04050200FEB42423FC
:04050300FEC42223ED
:04050400FE44278307
:040505000007851353
:0405060001C1240308
:0405070002010113D9
:040508000000806708
:04050900FE010113DB
:04050A0000112E238B
:04050B0000812C231C
:04050C0002010413D1
:04050D00FEA42623FF
:04050E00000077B7BB
:04050F005547859334
:04051000FEC42503FD
:04051100060000EFF1
:040512000005079346
:040513000007851345
:0405140001C120837E
:040515000181240339
:0405160002010113CA
:0405170000008067F9
:04051800FF010113CB
:040519000011262384
:04051A000081242315
:04051B0001010413C3
:04051C008141A783EF
:04051D0000078A63E6
:04051E008141A783ED
:04051F00000780E76A
:040520000005079338
:0405210000C0006FA7
:04052200000097B787
:04052300D287879361
:040524000007851334
:0405250000C120836E
:040526000081240329
:0405270001010113BA
:0405280000008067E8
:04052900FD010113BC
:04052A000211262371
:04052B000281242302
:04052C0003010413B0
:04052D00FCA42E23D9
:04052E00FCB42C23CA
:04052F00FDC427835D
:0405300000078863D5
:04053100FDC427835B
:040532000087A78314
:0405330000079E63BC
:04053400F91FF0EFCC
:0405350000050713A3
:0405360001600793C6
:0405370000F7202386
:04053800FEA0079387
:040539000540006F0A
:04053A00FDC4278352
:04053B00FD84270311
:04053C00FEE4242392
:04053D00FEF426237F
:04053E00FEC427834D
:04053F00FE8427030C
:0405400000E7A2230B
:04054100FE8427838A
:040542000007A70304
:04054300FEC4278348
:0405440000E7A02309
:04054500FE84278386
:040546000007A78380
:04054700FEC42703C4
:0405480000E7A22303
:04054900FE84278382
:04054A00FEC42703C1
:04054B0000E7A02302
:04054C000000001398
:04054D000000079310
:04054E00000785130A
:04054F0002C1208342
:0405500002812403FD
:04055100030101138E
:0405520000008067BE
:04055300FE01011391
:0405540000112E2341
:0405550000812C23D2
:040556000201041387
:04055700000067B782
:04055800DA87879324
:04055900FEF4262363
:04055A0001C0006F6D
:04055B00FEC4278330
:04055C000007A7836A
:04055D00000780E72C
:04055E00FEC427832D
:04055F000047879337
:04056000FEF426235C
:04056100FEC42703AA
:04056200000067B777
:04056300DB07879398
:04056400FCF76EE34F
:04056500000000137F
:04056600000000137E
:0405670001C120832B
:0405680001812403E6
:040569000201011377
:04056A0000008067A6
:04056B00FE01011379
:04056C0000112E2329
:04056D0000812C23BA
:04056E00020104136F
:04056F00000067B76A
:04057000DAC78793CC
:04057100FEF426234B
:0405720001C0006F55
:04057300FEC4278318
:040574000007A78352
:04057500000780E714
:04057600FEC4278315
:04057700FFC78793A0
:04057800FEF4262344
:04057900FEC4270392
:04057A00000067B75F
:04057B00DB07879380
:04057C00FCF77EE327
:04057D000000001367
:04057E000000001366
:04057F0001C1208313
:0405800001812403CE
:04058100020101135F
:04058200000080678E
:04058300FF01011360
:0405840000812623A9
:040585000101041359
:04058600000000135E
:0405870000C1240388
:040588000101011359
:040589000000806787
:04058A00FD0101135B
:04058B000211262310
:04058C0002812423A1
:04058D00030104134F
:04058E00FEA426237E
:04058F00FEB424236F
:04059000FEC4222360
:04059100FED4202351
:04059200FCE42E2334
:04059300FDC4270379
:04059400FE042683B8
:04059500FE442603F7
:04059600FE84258337
:04059700FEC4250376
:0405980001C000EFAF
:0405990000050793BF
:04059A0000078513BE
:04059B0002C12083F6
:04059C0002812403B1
:04059D000301011342
:04059E000000806772
:04059F00FA01011349
:0405A00004812E2381
:0405A1000601041338
:0405A200FAA42E2366
:0405A300FAB42C2357
:0405A400FAC42A2348
:0405A500FAD4282339
:0405A600FAE426232A
:0405A700FEA0079318
:0405A800FCF422231A
:0405A900FB84278325
:0405AA00FCF4242316
:0405AB00FC842703A2
:0405AC0000F00793C1
:0405AD0012E7C86326
:0405AE00008007932F
:0405AF003007B7F367
:0405B000FCF428230C
:0405B100FD0427839B
:0405B200FCF426230C
:0405B300000097B7F6
:0405B400D64787138C
:0405B500FC84278318
:0405B60000379793E0
:0405B70000F707B38F
:0405B800FB442703D6
:0405B90000E7A02394
:0405BA00000097B7EF
:0405BB00D647871385
:0405BC00FC84278311
:0405BD0000379793D9
:0405BE0000F707B388
:0405BF00FB0427030F
:0405C00000E7A2238B
:0405C100FB4427834D
:0405C2000607826343
:0405C300FC8427830A
:0405C400FBC427034A
:0405C500FCE42A2305
:0405C600FCF42C23F2
:0405C700FD84270385
:0405C80000F00793A5
:0405C90000E7E863FC
:0405CA00FD84278302
:0405CB00010787930A
:0405CC000080006F3C
:0405CD00FFF00793A1
:0405CE00FCF42E23E8
:0405CF00FDC42783BD
:0405D0000007D663E7
:0405D100FDC42783BB
:0405D2000800006FAE
:0405D300FDC42783B9
:0405D400FCF42C23E4
:0405D500FD842783F7
:0405D60000100713F7
:0405D70000F717B35F
:0405D8003047A07395
:0405D9000000079384
:0405DA000600006FA8
:0405DB00FC842783F2
:0405DC00FBC4270332
:0405DD00FEE42023F5
:0405DE00FEF42223E2
:0405DF00FE442703AC
:0405E00000F007938D
:0405E10000E7E863E4
:0405E200FE44278329
:0405E30001078793F2
:0405E4000080006F24
:0405E500FFF0079389
:0405E600FEF42423D8
:0405E700FE842783E4
:0405E8000007D663CF
:0405E900FE842783E2
:0405EA000200006F9C
:0405EB00FE842783E0
:0405EC00FEF42223D4
:0405ED00FE4427831E
:0405EE0000100713DF
:0405EF0000F717B347
:0405F0003047B0736D
:0405F100000007936C
:0405F200FCF42223D0
:0405F300FCC427839A
:0405F400FEF42623C8
:0405F500FEC4278396
:0405F6000087F793F0
:0405F7003007A073B6
:0405F80000000013EC
:0405F900FC44278314
:0405FA00000785135E
:0405FB0005C124030F
:0405FC0006010113E0
:0405FD000000806713
:0405FE00FD010113E7
:0405FF00021126239C
:04060000028124232C
:0406010003010413DA
:04060200FCA42E2303
:04060300FCB42C23F4
:04060400FCC42A23E5
:04060500FCD42823D6
:04060600FD042603C6
:04060700FD44258306
:04060800FD84250345
:040609007D4000EF41
:04060A00FEA4262301
:04060B00FEC427837F
:04060C000807C863B0
:04060D00000077B7BB
:04060E00E98786935F
:04060F00FEC42703FB
:040610000007079345
:0406110000179793A4
:0406120000E787B3C3
:040613000027979392
:0406140000F687B3B2
:040615000007A70330
:04061600FDC4278375
:0406170000E7A02335
:04061800000077B7B0
:04061900E987869354
:04061A00FEC42703F0
:04061B00000707933A
:04061C000017979399
:04061D0000E787B3B8
:04061E000027979387
:04061F0000F687B3A7
:040620000047A703E5
:04062100FDC427836A
:0406220000E7A22328
:04062300000077B7A5
:04062400E987869349
:04062500FEC42703E5
:04062600000707932F
:04062700001797938E
:0406280000E787B3AD
:04062900002797937C
:04062A0000F687B39C
:04062B000087A7039A
:04062C00FDC427835F
:04062D0000E7A4231B
:04062E00FEC42503DE
:04062F00114000EF87
:0406300000000013B3
:0406310002C120835F
:04063200028124031A
:0406330003010113AB
:0406340000008067DB
:04063500FE010113AE
:0406360000112E235E
:0406370000812C23EF
:0406380002010413A4
:04063900FEA42623D2
:04063A00FEB42423C3
:04063B00FEC42223B4
:04063C001FF0069312
:04063D000010061390
:04063E00FEC425834E
:04063F00000077B789
:04064000EA478513ED
:04064100EF5FF0EF88
:040642001FF006930C
:04064300000006139A
:04064400FE84258388
:04064500000077B783
:04064600E9878513A8
:04064700EDDFF0EF04
:040648001FF0069306
:040649000010061384
:04064A00FE442583C2
:04064B00000077B77D
:04064C00EB07851320
:04064D00EC5FF0EF7F
:04064E008201A783FB
:04064F000047A78336
:040650000107A78374
:0406510002079063A9
:040652008201A783F7
:040653000047A78332
:040654000000069309
:040655000020061368
:040656000000059308
:040657000007851300
:040658004A9000EFD5
:040659008201A783F0
:04065A000087A783EB
:04065B000107A78369
:04065C00020790639E
:04065D008201A783EC
:04065E000087A783E7
:04065F0000000693FE
:04066000002006135D
:0406610000000593FD
:0406620000078513F5
:0406630047D000EF8D
:040664008201A783E5
:0406650000C7A783A0
:040666000107A7835E
:040667000207906393
:040668008201A783E1
:0406690000C7A7839C
:04066A0000000693F3
:04066B000020061352
:04066C0000000593F2
:04066D0000078513EA
:04066E00451000EF44
:04066F000000001374
:0406700001C1208321
:0406710001812403DC
:04067200020101136D
:04067300000080679C
:04067400FE0101136F
:0406750000812E23AF
:040676000201041366
:04067700FEA4262394
:04067800FEC4270392
:0406790000200793C3
:04067A0004E7D66358
:04067B00000077B74D
:04067C00E9878693F1
:04067D00FEC427038D
:04067E0000070793D7
:04067F000017979336
:0406800000E787B355
:040681000027979324
:0406820000F687B344
:040683000007A423A5
:04068400000077B744
:04068500E9878693E8
:04068600FEC4270384
:0406870000070793CE
:04068800001797932D
:0406890000E787B34C
:04068A00002797931B
:04068B0000F687B33B
:04068C000007A023A0
:04068D000000001356
:04068E0001C124037F
:04068F000201011350
:04069000000080677F
:04069100FD01011353
:040692000281262398
:040693000301041348
:04069400FCA42E2371
:040695000080079347
:040696003007B7F37F
:04069700FEF4262324
:04069800FEC42783F2
:04069900FEF4202328
:04069A00FDC42783F1
:04069B00FEF4242322
:04069C00FE8427832E
:04069D000007A78328
:04069E00FE842703AC
:04069F0000472703E6
:0406A00000E7A223AA
:0406A100FE84278329
:0406A2000047A783E3
:0406A300FE842703A7
:0406A4000007270321
:0406A50000E7A023A7
:0406A600FE84278324
:0406A700FE842703A3
:0406A80000E7A223A2
:0406A900FE84278321
:0406AA00FE842703A0
:0406AB0000E7A023A1
:0406AC000000001337
:0406AD00FE0427839D
:0406AE00FEF4222311
:0406AF00FE4427835B
:0406B0000087F79335
:0406B1003007A073FB
:0406B2000000001331
:0406B3000000001330
:0406B40002C1240358
:0406B5000301011329
:0406B6000000806759
:0406B700FE0101132C
:0406B80000112E23DC
:0406B90000812C236D
:0406BA0001212A23CD
:0406BB0001312823BE
:0406BC000201041320
:0406BD00818187931D
:0406BE000007A78307
:0406BF00FEF4222300
:0406C000000097B7E8
:0406C100D187A70333
:0406C200D1C7A78372
:0406C300001005130B
:0406C400000005939A
:0406C50000A7063351
:0406C600000608130F
:0406C70000E83833DC
:0406C80000B786B33E
:0406C90000D807B39B
:0406CA00000786930C
:0406CB00000607130B
:0406CC00000687930A
:0406CD00000096B7DC
:0406CE00D0E6AC23A3
:0406CF00D0F6AE2390
:0406D0000C80006F2B
:0406D100FE44278339
:0406D2000007A783F3
:0406D300FEF42423EA
:0406D400FE44278336
:0406D5000087A603F1
:0406D60000C7A68330
:0406D700000097B7D1
:0406D800D187A7031C
:0406D900D1C7A7835B
:0406DA00000685137E
:0406DB0000078593FC
:0406DC0008A5E86322
:0406DD00000685137B
:0406DE0000078593F9
:0406DF0000B51863E7
:0406E0000006069377
:0406E1000007079374
:0406E20006D7EC63E8
:0406E300FE44278327
:0406E4000107A783E0
:0406E500FE442703A5
:0406E600014727039E
:0406E70000070513F0
:0406E800000780E7A0
:0406E900FEA4262322
:0406EA00FEC42783A0
:0406EB000007986309
:0406EC00FE442503A0
:0406ED00E91FF0EF22
:0406EE000480006F15
:0406EF00FE4427831B
:0406F0000087A703D5
:0406F10000C7A78314
:0406F200FEC4268399
:0406F3000006891361
:0406F4000000099366
:0406F50001270633A0
:0406F6000006059362
:0406F70000E5B5B3B2
:0406F800013786B38D
:0406F90000D587B3EE
:0406FA0000078693DC
:0406FB0000060713DB
:0406FC0000068793DA
:0406FD00FE4426830E
:0406FE0000E6A4234B
:0406FF0000F6A62338
:04070000FE842783C9
:04070100FEF42223BD
:04070200FE44270387
:0407030081818793D6
:04070400F2F71AE30B
:0407050000000013DD
:0407060000000013DC
:0407070001C1208389
:040708000181240344
:04070900014129037E
:04070A00010129833D
:04070B0002010113D3
:04070C000000806702
:04070D00FF010113D4
:04070E00008126231D
:04070F0001010413CD
:04071000FFF007935C
:040711003047B0734A
:0407120000000013D0
:0407130000C12403FA
:0407140001010113CB
:0407150000008067F9
:04071600FF010113CB
:040717000011262384
:040718000081242315
:0407190001010413C3
:04071A000AC000EF22
:04071B0000050713BB
:04071C0000058793BA
:04071D00000096B78B
:04071E00D2E6A0235C
:04071F00D2F6A22349
:04072000000007933B
:040721000007851335
:0407220000C120836F
:04072300008124032A
:0407240001010113BB
:0407250000008067E9
:04072600FF010113BB
:040727000011262374
:040728000081242305
:0407290001010413B3
:04072A0006C000EF16
:04072B0000050613AC
:04072C0000058693AB
:04072D00000097B77A
:04072E00D207A50346
:04072F00D247A58385
:0407300040A60733A5
:0407310000070813A2
:040732000106383351
:0407330040B687B392
:04073400410786B340
:0407350000068793A0
:0407360000070513A0
:04073700000785939F
:0407380000C1208359
:040739000081240314
:04073A0001010113A5
:04073B0000008067D3
:04073C00FF010113A5
:04073D0000812623EE
:04073E00010104139E
:04073F0002FAF7B70C
:04074000080787938C
:040741000007851315
:0407420000C12403CB
:04074300010101139C
:0407440000008067CA
:04074500FE0101139D
:0407460000812E23DD
:040747000201041394
:040748000003033770
:04074900044303134F
:04074A000003230382
:04074B00FE64242301
:04074C00000303376C
:04074D00040303138B
:04074E00000323037E
:04074F00FE642623FB
:040750000003033768
:040751000443031347
:04075200000323037A
:04075300FE842E03EF
:04075400FC6E18E33C
:04075500FE842303F8
:040756000003081381
:040757000000089303
:0407580000081793EB
:040759000000071382
:04075A00FEC42803AE
:04075B000008061379
:04075C000000069300
:04075D0000C7653339
:04075E0000D7E5B328
:04075F000005071377
:040760000005879376
:040761000007051375
:040762000007859374
:0407630001C12403A9
:04076400020101137A
:0407650000008067A9
:04076600FD0101137D
:0407670002812623C2
:040768000301041372
:04076900FCA42C239D
:04076A00FCB42E238A
:04076B00F14026F340
:04076C00FED426236E
:04076D00FEC426039D
:04076E00000066B76A
:04076F0000968693D7
:0407700000D606B3F6
:040771000036969325
:04077200FED424236A
:04077300FE84268357
:040774000046869322
:04077500FFF0061378
:0407760000C6A023F6
:04077700FD842603D4
:04077800FE84268352
:0407790000C6A023F3
:04077A00FDC4268311
:04077B000006D7138A
:04077C0000000793DF
:04077D00FE8426834D
:04077E000046869318
:04077F0000070793D5
:0407800000F6A023BC
:040781000000001361
:0407820002C1240389
:04078300030101135A
:04078400000080678A
:04078500FE0101135D
:0407860000812E239D
:040787000201041354
:04078800F1402373A6
:04078900FE642623C1
:04078A00FEC42E0378
:04078B0000006337D0
:04078C0000930313C0
:04078D00006E0333C4
:04078E00003313130E
:04078F00FE642023C1
:04079000FE0423033D
:04079100000323033B
:04079200FE642223BC
:04079300FE0423033A
:040794000043031308
:040795000003230337
:04079600FE642423B6
:04079700FE842303B6
:04079800000308133F
:0407990000000893C1
:04079A0000081793A9
:04079B000000071340
:04079C00FE442803EC
:04079D000008061337
:04079E0000000693BE
:04079F0000C76533F7
:0407A00000D7E5B3E6
:0407A1000005071335
:0407A2000005879334
:0407A3000007051333
:0407A4000007859332
:0407A50001C1240367
:0407A6000201011338
:0407A7000000806767
:0407A800FC0101133C
:0407A90002112E23E8
:0407AA0002812C2379
:0407AB00040104132E
:0407AC00FCA4262360
:0407AD00FCB4242351
:0407AE00FCC4222342
:0407AF00E59FF0EFE3
:0407B000FEA424235C
:0407B100FEB4262349
:0407B200FE84270397
:0407B300FEC42783D6
:0407B4000000C53745
:0407B50035050513EE
:0407B60000000593A7
:0407B70000A706335E
:0407B800000608131C
:0407B90000E83833E9
:0407BA0000B786B34B
:0407BB0000D807B3A8
:0407BC000007869319
:0407BD000006071318
:0407BE000006879317
:0407BF000007051317
:0407C0000007859316
:0407C100E95FF0EF0D
:0407C2000080079319
:0407C3003007B7F351
:0407C400FEF42223FA
:0407C500FE44278344
:0407C600FCF42E23EE
:0407C700BC1FF0EF74
:0407C800FDC42783C2
:0407C900FEF42023F7
:0407CA00FE0427837F
:0407CB000087F79319
:0407CC003007A073DF
:0407CD000000001315
:0407CE000000001314
:0407CF0003C12083BF
:0407D000038124037A
:0407D100040101130B
:0407D200000080673C
:0407D300FE0101130F
:0407D40000112E23BF
:0407D50000812C2350
:0407D6000201041305
:0407D700DB9FF0EFC5
:0407D800FEA4242334
:0407D900FEB4262321
:0407DA00FE8427036F
:0407DB00FEC42783AE
:0407DC000000C5371D
:0407DD0035050513C6
:0407DE00000005937F
:0407DF0000A7063336
:0407E00000060813F4
:0407E10000E83833C1
:0407E20000B786B323
:0407E30000D807B380
:0407E40000078693F1
:0407E50000060713F0
:0407E60000068793EF
:0407E70000070513EF
:0407E80000078593EE
:0407E900DF5FF0EFEF
:0407EA000800079369
:0407EB003047A07380
:0407EC0000000013F6
:0407ED0000000013F5
:0407EE0001C12083A2
:0407EF00018124035D
:0407F00002010113EE
:0407F100000080671D
:0407F200FF010113EF
:0407F300000005936A
:0407F4000081242339
:0407F50000112623A6
:0407F60000050413E3
:0407F70033C010EF0C
:0407F80000007797EF
:0407F900D4C7A78337
:0407FA00000784630D
:0407FB00000780E78C
:0407FC0000040513DD
:0407FD000A9020EF4F
:0407FE00FC010113E6
:0407FF0002C12423EC
:0408000002D12623D8
:0408010002F12A23B3
:040802000006069353
:0408030002810793D4
:040804000005861352
:040805000005059352
:040806008201A503C3
:0408070000112E238B
:0408080002E12823BE
:0408090003012C2398
:04080A0003112E2385
:04080B0000F12623AF
:04080C00071000EFE2
:04080D0001C1208382
:04080E0004010113CD
:04080F0000008067FE
:040810008201A78337
:040811000CA78E633F
:0408120004452583F1
:04081300FE010113CE
:0408140000912A2302
:0408150000112E237D
:0408160000812C230E
:040817000005049341
:0408180004058863E8
:04081900012128236E
:04081A00013126235F
:04081B0000000913BD
:04081C000800099334
:04081D00012587B377
:04081E000007A40328
:04081F0000040E6360
:040820000004059338
:0408210000042403A8
:040822000004851336
:04082300525010EF30
:04082400FE0418E3D3
:040825000444A5835F
:040826000049091369
:04082700FD391CE398
:040828000004851330
:0408290050D010EFAC
:04082A00010129039C
:04082B0000C129835C
:04082C000384A58319
:04082D0000058663D9
:04082E00000485132A
:04082F004F5010EF27
:040830000404A40315
:0408310000040C6350
:040832000004059326
:040833000004240396
:040834000004851324
:040835004DD010EFA3
:04083600FE0418E3C1
:0408370004C4A583CD
:0408380000058663CE
:04083900000485131F
:04083A004C9010EFDF
:04083B000344A78348
:04083C0000078E63C0
:04083D00018124030E
:04083E0001C1208351
:04083F000004851319
:0408400001412483CB
:04084100020101139C
:0408420000078067C4
:0408430001C120834C
:040844000181240307
:0408450001412483C6
:040846000201011397
:0408470000008067C6
:0408480000008067C5
:04084900000056173E
:04084A00014606134A
:04084B0000001597FD
:04084C007485859397
:04084D00000055173B
:04084E00EE4505135B
:04084F007C80006F3A
:0408500000452583B7
:04085100FF0101138F
:0408520000812423DA
:040853000011262347
:040854000000779792
:04085500C947879375
:040856000005041382
:0408570000F58463C1
:04085800714010EFEC
:04085900008425836F
:04085A00000077978C
:04085B00CE4787936A
:04085C0000F58663BA
:04085D00000405137B
:04085E006FC010EF68
:04085F0000C4258329
:040860000000779786
:04086100D34787935F
:0408620000F58C63AE
:040863000004051375
:0408640000812403E8
:0408650000C120832B
:040866000101011378
:040867006D80106F21
:0408680000C1208328
:0408690000812403E3
:04086A000101011374
:04086B0000008067A2
:04086C000645A78313
:04086D000017F793E6
:04086E000007986384
:04086F0000C5D78366
:040870002007F793D3
:040871000007866393
:04087200000005136A
:04087300000080679A
:040874000585A5034E
:04087500FF0101136B
:040876000011262324
:04087700670010EF17
:0408780000C1208318
:040879000000051363
:04087A000101011364
:04087B000000806792
:04087C000645A78303
:04087D000017F793D6
:04087E000007986374
:04087F0000C5D78356
:040880002007F793C3
:040881000007866383
:04088200000005135A
:04088300000080678A
:040884000585A5033E
:04088500FF0101135B
:040886000011262314
:04088700648010EF8A
:0408880000C1208308
:040889000000051353
:04088A000101011354
:04088B000000806782
:04088C00FE01011355
:04088D0000000797C9
:04088E00EF07879356
:04088F0000112E2303
:0408900000812C2394
:0408910000912A2385
:0408920000007417D7
:04089300B9C40413CD
:0408940001212823F3
:0408950001312623E4
:0408960001412423D5
:0408970000800613C4
:0408980000000593C4
:0408990000007717CD
:04089A00ACF7242370
:04089B0000007517CD
:04089C00BD4505133E
:04089D00004007937D
:04089E0000F4262319
:04089F00000420230E
:0408A000000422230B
:0408A1000004242308
:0408A2000604222303
:0408A3000004282302
:0408A40000042A23FF
:0408A50000042C23FC
:0408A600758010EF5A
:0408A70000000A172C
:0408A80071CA0A13F4
:0408A90000000997AB
:0408AA00778989932E
:0408AB000000091729
:0408AC007F89091324
:0408AD00000014979C
:0408AE008684849325
:0408AF0000007517B9
:0408B000B80505136F
:0408B10003442023B9
:0408B20003342223C6
:0408B30003242423D3
:0408B4000294262361
:0408B50000842E236A
:0408B600564010EFA9
:0408B700000107B77E
:0408B800008787939B
:0408B90000800613A2
:0408BA0000000593A2
:0408BB0000007517AD
:0408BC00BBC50513A0
:0408BD0006F42A23F0
:0408BE0006042423E5
:0408BF0006042623E2
:0408C00006042823DF
:0408C1000C042623DA
:0408C20006042C23D9
:0408C30006042E23D6
:0408C40008042023E1
:0408C5006DC010EF03
:0408C6000000779720
:0408C700B347879319
:0408C80000007517A0
:0408C900B845051316
:0408CA0008F42223E9
:0408CB000944242395
:0408CC0009342623A2
:0408CD0009242823AF
:0408CE0008942A233D
:0408CF00500010EFD6
:0408D000000207B764
:0408D10001278793E1
:0408D2000080061389
:0408D3000000059389
:0408D4000000751794
:0408D500BC05051346
:0408D6000CF42E23CD
:0408D7000C042823C2
:0408D8000C042A23BF
:0408D9000C042C23BC
:0408DA0012042A23B7
:0408DB000E042023C4
:0408DC000E042223C1
:0408DD000E042423BE
:0408DE00678010EF30
:0408DF000000779707
:0408E000B3878793C0
:0408E1000F44282375
:0408E2000F342A2382
:0408E3000F242C238F
:0408E4000E942E231D
:0408E5000EF42623C4
:0408E6000181240365
:0408E70001C12083A8
:0408E8000141248323
:0408E90001012903DD
:0408EA0000C129839D
:0408EB0000812A035B
:0408EC00000075177C
:0408ED00B5C5051375
:0408EE0002010113EF
:0408EF004800106F3E
:0408F000FE010113F1
:0408F1000131262388
:0408F2000005099361
:0408F3000000751775
:0408F400990505134A
:0408F50000112E239D
:0408F60000812C232E
:0408F70000912A231F
:0408F800012128238F
:0408F900468010EF36
:0408FA0000007797EC
:0408FB009447A783F4
:0408FC0010078263FC
:0408FD000000591787
:0408FE00D4490913BD
:0408FF00FFF004936F
:040900000049278300
:040901000089240342
:04090200FFF78793E1
:040903000007D863AE
:040904000940006F37
:04090500068404134D
:040906000897866365
:0409070000C417030E
:04090800FFF78793DB
:04090900FE0718E3EA
:04090A00FFFF07B72D
:04090B0000178793B7
:04090C0000F42623AA
:04090D000584051345
:04090E000604222396
:04090F00400010EFA5
:040910000000751757
:0409110091C5051374
:0409120041C010EFE1
:040913000080061347
:040914000004202398
:040915000004242393
:040916000004222394
:04091700000428238D
:0409180000042A238A
:0409190000042C2387
:04091A000000059341
:04091B0005C40513F7
:04091C00580010EF80
:04091D000204282385
:04091E0002042A2382
:04091F000404222387
:040920000404242384
:0409210001C120836D
:0409220000040513B5
:040923000181240327
:0409240001412483E6
:0409250001012903A0
:0409260000C1298360
:0409270002010113B5
:0409280000008067E4
:04092900000924039A
:04092A00000406635C
:04092B0000040913A8
:04092C00F51FF06F54
:04092D001AC0059354
:04092E000009851324
:04092F00680000EF6D
:0409300000050413A7
:0409310002050C634C
:0409320000C50513E4
:0409330000400793E6
:040934000004202378
:0409350000F4222385
:0409360000A42423D2
:040937001A00061389
:040938000000059323
:0409390050C010EFAB
:04093A0000892023ED
:04093B000004091398
:04093C00F11FF06F48
:04093D00D3DFF0EF25
:04093E00EFDFF06F88
:04093F000009202368
:040940000000751727
:0409410085C5051350
:0409420035C010EFBD
:0409430000C0079356
:0409440000F9A023F3
:04094500F71FF06F39
:04094600FF01011399
:0409470000812423E4
:04094800000504138F
:04094900000075171E
:04094A008385051389
:04094B00001126234E
:04094C0031C010EFB7
:04094D0003442783B5
:04094E0000079E639D
:04094F000000079706
:04095000C047879382
:0409510002F42A235F
:0409520000006797A3
:040953007E47A783B1
:0409540000078E63A7
:0409550000812403F6
:0409560000C1208339
:040957000000751710
:0409580080050513FE
:040959000101011384
:04095A002FC0106F2B
:04095B00CC5FF0EF8E
:04095C0000812403EF
:04095D0000C1208332
:04095E000000651719
:04095F007E450513B9
:04096000010101137D
:040961002E00106FE5
:040962000000651715
:040963007D450513B6
:040964002BC0106F25
:040965000000651712
:040966007C85051374
:040967002C80106F61
:04096800FF01011377
:04096900000065170E
:04096A007B85051371
:04096B00001126232E
:04096C0029C010EF9F
:04096D0000C1208322
:04096E000000561718
:04096F00B8060613AD
:0409700000000597E7
:04097100BF058593A6
:040972000000051369
:04097300010101136A
:040974003340006F9D
:04097500FF0101136A
:040976000000561710
:04097700B6060613A7
:0409780000000597DF
:04097900C10585939C
:04097A000000051361
:04097B00001126231E
:04097C00314000EF17
:04097D0000C1208312
:04097E0000006517F9
:04097F0076450513A1
:04098000010101135D
:040981002600106FCD
:04098200FD0101135F
:0409830002812423A6
:040984000291222397
:040985000321202307
:0409860001312E23EA
:0409870001412C23DB
:04098800021126230F
:040989008201AA033A
:04098A00000504134D
:04098B0000058913C7
:04098C0000060993C5
:04098D000006849349
:04098E00000A0663F2
:04098F00034A27836D
:0409900020078A634F
:0409910000200793A8
:0409920000F988637D
:0409930000100793B6
:040994002137E863BC
:040995002004C66311
:040996000644278369
:040997000017F793BB
:040998001007886359
:0409990000040593BE
:04099A00000A051337
:04099B00499010EF80
:04099C0003042583A8
:04099D0000058C6362
:04099E0004040793B3
:04099F0000F5866376
:0409A000000A051331
:0409A10072C010EF21
:0409A2000204282300
:0409A30000C41783F2
:0409A40000042C23FC
:0409A5000004222305
:0409A6000807F71334
:0409A70014071263BC
:0409A800FFFFF7371F
:0409A90035C7071334
:0409AA0000E7F7B3B8
:0409AB0000F416231B
:0409AC00002007130D
:0409AD0014E98A635C
:0409AE0000C10693EB
:0409AF0000810613AA
:0409B00000040593A7
:0409B100000A051320
:0409B200010010EF41
:0409B30000C45783A2
:0409B40000A7E7B3FE
:0409B50000F4162311
:0409B6000A04886344
:0409B7000A090863BE
:0409B800034A278344
:0409B9000C0786633E
:0409BA00008127038E
:0409BB0000C41783DA
:0409BC0000970A6333
:0409BD0000001737E8
:0409BE008007071394
:0409BF0000E7E7B3B3
:0409C00000F4162306
:0409C1000010071308
:0409C20000E996634F
:0409C3000017E7939F
:0409C40000F4162302
:0409C50001242023C6
:0409C60001242823BD
:0409C70000942A234B
:0409C8000087F7139A
:0409C90008070C63AC
:0409CA000017F71308
:0409CB0012070063AC
:0409CC0006442703B3
:0409CD00409004B39F
:0409CE0000042423DA
:0409CF0000942C2341
:0409D0000017771382
:0409D10008070463AC
:0409D200000004938A
:0409D30002C12083BA
:0409D4000281240375
:0409D50002012903EF
:0409D60001C12983AF
:0409D70001812A036D
:0409D800000485137F
:0409D9000241248330
:0409DA000301011301
:0409DB000000806731
:0409DC0000C4578379
:0409DD002007F79365
:0409DE00EE0796E3A7
:0409DF000584250363
:0409E0000CC010EF48
:0409E100EE1FF06FA6
:0409E20000812483E9
:0409E3000004851374
:0409E400394000EFA7
:0409E50000050913ED
:0409E6000C05086391
:0409E70000C457836E
:0409E8000807E79382
:0409E90000F41623DD
:0409EA00034A278312
:0409EB00F2079EE38E
:0409EC00000A0513E5
:0409ED00D65FF0EFF2
:0409EE00F31FF06F94
:0409EF0000042423B9
:0409F000064427038F
:0409F1000017771361
:0409F200F80710E30F
:0409F3002007F7934F
:0409F400F6079CE383
:0409F500058425034D
:0409F60008C010EF36
:0409F700F6DFF06FC8
:0409F800010425834E
:0409F900000A0513D8
:0409FA005C8010EF1E
:0409FB0000C417839A
:0409FC00FFFFF737CB
:0409FD0035C70713E0
:0409FE0000E7F7B364
:0409FF0000F41623C7
:040A000000200713B8
:040A0100EAE99AE3A1
:040A02000000049359
:040A0300064427037B
:040A0400043406931D
:040A05000027E613CD
:040A060000D42023D5
:040A070000D42823CC
:040A08000010069341
:040A090000C41623EC
:040A0A00000424239D
:040A0B0000D42A23C6
:040A0C000017771345
:040A0D00F0071CE3EF
:040A0E002007F79333
:040A0F00F00798E371
:040A10000584250331
:040A1100020010EFE0
:040A1200F05FF06F32
:040A13000094242304
:040A1400F71FF06F69
:040A1500000A0513BB
:040A1600CC1FF0EF12
:040A1700DE9FF06FFF
:040A1800FFF0049354
:040A1900EE9FF06FED
:040A1A0001512A2339
:040A1B0000812A83A9
:040A1C00029A806357
:040A1D00000A851333
:040A1E002AC000EFFB
:040A1F0000050913B2
:040A2000000A8493B1
:040A21000005066363
:040A220001412A83E1
:040A2300F11FF06F60
:040A240000C4178370
:040A250001412A83DE
:040A2600FFF0049346
:040A2700F71FF06F56
:040A2800FF010113B6
:040A2900000587132A
:040A2A000081242300
:040A2B000006059329
:040A2C0000050413AA
:040A2D000006861326
:040A2E0000070513A5
:040A2F0000006797C5
:040A30004607A623AC
:040A31000011262367
:040A32004A8020EFE7
:040A3300FFF0079336
:040A340000F50A635C
:040A350000C1208359
:040A36000081240314
:040A370001010113A5
:040A380000008067D3
:040A390000006797BB
:040A3A004447A78303
:040A3B00FE0784E34B
:040A3C0000C1208352
:040A3D0000F420237E
:040A3E00008124030C
:040A3F00010101139D
:040A400000008067CB
:040A4100FD0101139F
:040A42000321202349
:040A430001312E232C
:040A440001412C231D
:040A450001512A230E
:040A460001612823FF
:040A470001712623F0
:040A4800021126234E
:040A490002812423DF
:040A4A0002912223D0
:040A4B0000050B1384
:040A4C0000058B9383
:040A4D0000060A9302
:040A4E0000000A1387
:040A4F0000100993F7
:040A5000FFF0091397
:040A5100004AA48330
:040A5200008AA4036F
:040A5300FFF4849395
:040A54000204C8636D
:040A550000C45783FF
:040A560000F9FE6342
:040A570000E417831D
:040A580000040593FE
:040A5900000B051376
:040A5A000127866387
:040A5B00000B80E725
:040A5C0000AA6A334F
:040A5D00FFF484938B
:040A5E0006840413F3
:040A5F00FD249CE3F3
:040A6000000AAA835B
:040A6100FC0A90E318
:040A620002C120832A
:040A630002812403E5
:040A640002412483A4
:040A6500020129035E
:040A660001C129831E
:040A670001412A839C
:040A680001012B035A
:040A690000C12B831A
:040A6A00000A051366
:040A6B0001812A03D8
:040A6C00030101136E
:040A6D00000080679E
:040A6E00FF01011370
:040A6F0000812423BB
:040A700000058413E6
:040A710000E5958384
:040A72000011262326
:040A730045D010EF6B
:040A740002054063D4
:040A750005042783CA
:040A760000C1208318
:040A770000A787B39A
:040A780004F4282337
:040A790000812403D1
:040A7A000101011362
:040A7B000000806790
:040A7C0000C45783D8
:040A7D00FFFFF73749
:040A7E00FFF7071364
:040A7F0000E7F7B3E2
:040A800000C120830E
:040A810000F4162344
:040A820000812403C8
:040A83000101011359
:040A84000000806787
:040A85000000051355
:040A86000000806785
:040A870000C597838C
:040A8800FE01011357
:040A890000812C2399
:040A8A0000912A238A
:040A8B0001212823FA
:040A8C0001312623EB
:040A8D0000112E2303
:040A8E001007F71343
:040A8F0000058413C7
:040A900000050493C6
:040A9100000609133F
:040A9200000689933E
:040A930004071063E1
:040A9400FFFFF73732
:040A9500FFF707134D
:040A960000E7F7B3CB
:040A970000E41583DF
:040A980000F416232D
:040A990001812403B0
:040A9A0001C12083F3
:040A9B000009869335
:040A9C000009061334
:040A9D0000C12983E8
:040A9E000101290326
:040A9F0000048513B7
:040AA0000141248369
:040AA100020101133A
:040AA2002550006F6C
:040AA30000E5958352
:040AA4000020069395
:040AA5000000061334
:040AA60032D010EF4B
:040AA70000C41783ED
:040AA800FB1FF06FD1
:040AA900FF01011335
:040AAA000081242380
:040AAB0000058413AB
:040AAC0000E5958349
:040AAD0000112623EB
:040AAE0030D010EF45
:040AAF00FFF00793BA
:040AB00002F50863E0
:040AB10000C45783A3
:040AB20000001737F2
:040AB30000C12083DB
:040AB40000E7E7B3BD
:040AB500010797930B
:040AB6004107D7938A
:040AB70004A4282348
:040AB80000F416230D
:040AB9000081240391
:040ABA000101011322
:040ABB000000806750
:040ABC0000C4578398
:040ABD00FFFFF73709
:040ABE00FFF7071324
:040ABF0000E7F7B3A2
:040AC0000107979300
:040AC1004107D7937F
:040AC20000C12083CC
:040AC30000F4162302
:040AC4000081240386
:040AC5000101011317
:040AC6000000806745
:040AC70000E595832E
:040AC8001950106F42
:040AC900000505938C
:040ACA008201A503FD
:040ACB000100006FB7
:040ACC000005059389
:040ACD008201A503FA
:040ACE002780106FFE
:040ACF00FD01011311
:040AD00003212023BB
:040AD10002112623C5
:040AD2000281242356
:040AD3000291222347
:040AD40001312E239B
:040AD50000B587934E
:040AD60001600713A1
:040AD70000050913FA
:040AD80008F7626356
:040AD900010007937E
:040ADA0020B7E663F8
:040ADB00445000EF94
:040ADC0001800793FB
:040ADD00002005935D
:040ADE00010004937C
:040ADF000000499733
:040AE0005C89899311
:040AE10000F987B3DE
:040AE2000047A40322
:040AE300FF878713EF
:040AE40036E402638F
:040AE500004427831F
:040AE60000C426839F
:040AE700008426035E
:040AE800FFC7F793BA
:040AE90000F407B35B
:040AEA000047A70317
:040AEB0000D62623E8
:040AEC0000C6A42379
:040AED000017671374
:040AEE0000090513E3
:040AEF0000E7A22357
:040AF0003FD000EF04
:040AF1000084051365
:040AF20002C120839A
:040AF3000281240355
:040AF4000241248314
:040AF50002012903CE
:040AF60001C129838E
:040AF70003010113E3
:040AF8000000806713
:040AF900FF87F493EC
:040AFA001807C663B0
:040AFB0018B4E463E4
:040AFC003C1000EFBB
:040AFD001F700793CC
:040AFE004097F863C2
:040AFF000094D793F5
:040B000018078263ED
:040B01000040071396
:040B020034F76E63F3
:040B03000064D79320
:040B0400039785933B
:040B050003878813C7
:040B0600003596130D
:040B0700000049970A
:040B080052898993F2
:040B090000C9863366
:040B0A00004624037A
:040B0B00FF86061348
:040B0C0002860863F2
:040B0D0000F00513DC
:040B0E000140006F33
:040B0F0000C4268375
:040B10002A075663F7
:040B110000D60E6399
:040B12000006841342
:040B130000442783F0
:040B1400FFC7F7938D
:040B1500409787334B
:040B1600FEE552E3C3
:040B1700000805933A
:040B18000109A40328
:040B190000004897F9
:040B1A004E888893E6
:040B1B0027140C632C
:040B1C0000442783E7
:040B1D0000F006934B
:040B1E00FFC7F79383
:040B1F004097873341
:040B200038E6CA6386
:040B21000119AA23E9
:040B22000119A823EA
:040B230034075E63D2
:040B24001FF00713A4
:040B25000049A503DB
:040B260026F76663E5
:040B2700FF87F7133A
:040B28000087071328
:040B290000E9873325
:040B2A000007268317
:040B2B000057D61386
:040B2C00001007931B
:040B2D0000C797B3B3
:040B2E0000F5653336
:040B2F00FF870793A2
:040B300000F4262384
:040B310000D42423A5
:040B320000A9A22351
:040B330000872023F4
:040B34000086A6236E
:040B35004025D793ED
:040B36000010061392
:040B370000F616337B
:040B38000AC56A631D
:040B390000A677B3E8
:040B3A0002079463B7
:040B3B000016161377
:040B3C00FFC5F59369
:040B3D0000A677B3E4
:040B3E000045859356
:040B3F0000079A63AE
:040B40000016161372
:040B410000A677B3E0
:040B42000045859352
:040B4300FE078AE33C
:040B440000F00813A2
:040B450000359313D1
:040B4600006983338C
:040B4700000305138F
:040B480000C527833A
:040B490000058E1302
:040B4A0026F5006329
:040B4B000047A703B5
:040B4C000007841307
:040B4D0000C7A783B3
:040B4E00FFC7771353
:040B4F00409706B312
:040B500026D8406300
:040B5100FE06C2E3F7
:040B520000E4073381
:040B530000472683AE
:040B540000842603F0
:040B5500000905137B
:040B56000016E6930C
:040B570000D722237E
:040B580000F626235A
:040B590000C7A4230A
:040B5A00255000EF33
:040B5B0000840513FA
:040B5C00E59FF06FB2
:040B5D0000C007933A
:040B5E0000F9202357
:040B5F00000005137A
:040B6000E49FF06FAF
:040B61002000061357
:040B620004000593F3
:040B630003F0081380
:040B6400E8DFF06F67
:040B65000089A4035C
:040B660001612823DE
:040B6700004427839C
:040B6800FFC7FB13B5
:040B6900009B686322
:040B6A00409B073372
:040B6B0000F00793FC
:040B6C000EE7C86365
:040B6D0001912223AD
:040B6E0082418C93A1
:040B6F00000CA703CC
:040B700001412C23F0
:040B710001512A23E1
:040B720001712623C4
:040B730000006A977D
:040B7400F6CAAA8390
:040B7500FFF00793F3
:040B760001640A33D9
:040B770001548AB3E8
:040B78003EF70263DF
:040B7900000017B7AA
:040B7A0000F7879366
:040B7B0000FA8AB33F
:040B7C00FFFFF7B7C9
:040B7D0000FAFAB3CD
:040B7E00000A859351
:040B7F000009051351
:040B8000684000EFDA
:040B8100FFF00793E7
:040B820000050B93CC
:040B830046F50663CA
:040B840001812423A4
:040B85002545686337
:040B860000006C17E8
:040B8700104C0C13EF
:040B8800000C2583B5
:040B890000BA85B376
:040B8A0000BC202368
:040B8B0000058713C7
:040B8C002CAA10631C
:040B8D000145179374
:040B8E002A079C6333
:040B8F000089AB83AB
:040B9000015B07B34B
:040B91000017E793CF
:040B920000FBA2239F
:040B930000006717E0
:040B9400EE870713CE
:040B950000072683AC
:040B960000B6F4634E
:040B970000B7202360
:040B980000006717DB
:040B9900ED0707134A
:040B9A0000072683A7
:040B9B0000B6F46349
:040B9C0000B720235B
:040B9D0000812C03A4
:040B9E00000B8413B1
:040B9F00FFC7F79302
:040BA00040978733C0
:040BA1003897EC6332
:040BA20000F00793C5
:040BA30038E7D863F4
:040BA40001812A039E
:040BA50001412A835D
:040BA60000C12B83DC
:040BA70000412C835A
:040BA8000014E793BB
:040BA90000F422230F
:040BAA00009404B3FC
:040BAB000099A423E6
:040BAC0000176713B4
:040BAD000009051323
:040BAE0000E4A2239A
:040BAF00101000EF33
:040BB00002C12083DB
:040BB10000840513A4
:040BB2000281240395
:040BB30001012B030E
:040BB4000241248353
:040BB500020129030D
:040BB60001C12983CD
:040BB7000301011322
:040BB8000000806752
:040BB9000049A50347
:040BBA00DEDFF06F1B
:040BBB000084260389
:040BBC00CB5FF06FAC
:040BBD0000C7A403C6
:040BBE0000258593F6
:040BBF00D68782E370
:040BC000C95FF06FAA
:040BC1000097D713AF
:040BC2000040069356
:040BC30014E6F263DF
:040BC4000140069353
:040BC50032E6E663CB
:040BC60005C7061346
:040BC70005B70693D5
:040BC80000361613CA
:040BC90000C98633A6
:040BCA0000062703F7
:040BCB00FF86061388
:040BCC0000E61863C4
:040BCD002980006F0C
:040BCE000087270372
:040BCF0000E60863D1
:040BD0000047268331
:040BD100FFC6F693D2
:040BD200FED7E8E37F
:040BD30000C726032E
:040BD40000C4262310
:040BD50000E42423F1
:040BD600008624234E
:040BD700008726234A
:040BD800D75FF06F84
:040BD90001400713BD
:040BDA0010F7786335
:040BDB0005400713B7
:040BDC002EF7666327
:040BDD0000C4D793E6
:040BDE0006F78593FE
:040BDF0006E788138A
:040BE0000035961333
:040BE100C99FF06F49
:040BE200001E0E13D0
:040BE300003E7793C6
:040BE4000085051370
:040BE5001007806312
:040BE60000C527839C
:040BE700D8DFF06FF4
:040BE800008426035C
:040BE9000014E5937C
:040BEA0000B422230E
:040BEB0000F62623C7
:040BEC0000C7A42377
:040BED00009404B3B9
:040BEE000099AA239D
:040BEF000099A8239E
:040BF0000016E79371
:040BF1000114A62322
:040BF2000114A42323
:040BF30000F4A22345
:040BF40000E40733DF
:040BF50000090513DB
:040BF60000D72023E1
:040BF7007E0000EF8D
:040BF800008405135D
:040BF900BE5FF06F7C
:040BFA0000F407B349
:040BFB000047A70305
:040BFC0000090513D4
:040BFD000017671363
:040BFE0000E7A22347
:040BFF007C0000EF87
:040C00000084051354
:040C0100BC5FF06F75
:040C02000034D59352
:040C0300008487934F
:040C0400B6DFF06FF8
:040C05000014E6935E
:040C060000D42223D1
:040C0700009404B39E
:040C08000099AA2382
:040C09000099A82383
:040C0A0000176693D6
:040C0B000114A62307
:040C0C000114A42308
:040C0D0000D4A2234A
:040C0E0000F407B334
:040C0F0000090513C0
:040C100000E7A02336
:040C1100778000EFF9
:040C12000084051342
:040C1300B7DFF06FE8
:040C14000067D7138B
:040C15000397061328
:040C160003870693B7
:040C1700003616137A
:040C1800EC5FF06F2E
:040C190007340C632D
:040C1A000089A403A6
:040C1B0000812C0325
:040C1C0000442783E6
:040C1D00E09FF06FF5
:040C1E0005C78593EE
:040C1F0005B788137A
:040C200000359613F2
:040C2100B99FF06F18
:040C220000832783A1
:040C2300FFF58593C1
:040C2400286790634A
:040C25000035F7930C
:040C2600FF83031332
:040C2700FE0796E34B
:040C28000049A703D5
:040C2900FFF64793F8
:040C2A0000E7F7B335
:040C2B0000F9A22307
:040C2C000016161385
:040C2D00CEC7E0E36B
:040C2E00CC060EE3FF
:040C2F0000F6773321
:040C300000071A633C
:040C31000016161380
:040C320000F677331E
:040C3300004E0E134E
:040C3400FE070AE3CA
:040C3500000E059315
:040C3600C3DFF06FB9
:040C370000006C1736
:040C3800E40C0C13A9
:040C3900000C270381
:040C3A0000EA873312
:040C3B0000EC202386
:040C3C00000CA6837F
:040C3D00FFF007932A
:040C3E0018F68663BB
:040C3F00414B87B3EB
:040C400000E787B38F
:040C410000FC202370
:040C4200007BFC93A4
:040C43000C0C8C63A6
:040C4400419B8BB392
:040C4500000017B7DD
:040C46000087879309
:040C4700008B8B9300
:040C4800419785B398
:040C4900015B8AB30E
:040C4A00415585B3D8
:040C4B000145959337
:040C4C000145DA1371
:040C4D00000A059301
:040C4E000009051381
:040C4F00348000EFFE
:040C5000FFF0079317
:040C510018F500632F
:040C520041750533B0
:040C530001450AB39A
:040C5400000C270366
:040C55000179A4235A
:040C5600001AE79306
:040C570000EA05B3F7
:040C580000BC202399
:040C590000FBA223D7
:040C5A00CF3402E3AE
:040C5B0000F006930C
:040C5C000B66F063D0
:040C5D000044270325
:040C5E00FF4B0793AE
:040C5F00FF87F79381
:040C600000177713EF
:040C610000F76733FE
:040C620000E4222365
:040C63000050061324
:040C640000F407335E
:040C650000C722237F
:040C660000C724237C
:040C670000F6E6634A
:040C6800004BA78313
:040C6900CA9FF06FBF
:040C6A00008405936A
:040C6B000009051364
:040C6C00401000EF45
:040C6D000089AB83CC
:040C6E00000C2583CE
:040C6F00004BA7830C
:040C7000C8DFF06F7A
:040C7100010A8A9357
:040C7200C31FF06F3D
:040C73004026D693AE
:040C740000100793D2
:040C750000D797B35A
:040C760000F56533ED
:040C770000A9A2230B
:040C7800D71FF06F23
:040C7900015B85B3E3
:040C7A0040B005B3CE
:040C7B000145959307
:040C7C000145DA1341
:040C7D00000A0593D1
:040C7E000009051351
